{
    "contractName": "Collection",
    "abi": [
        {
            "inputs": [],
            "stateMutability": "nonpayable",
            "type": "constructor"
        },
        {
            "anonymous": false,
            "inputs": [
                {
                    "indexed": true,
                    "internalType": "address",
                    "name": "account",
                    "type": "address"
                },
                {
                    "indexed": true,
                    "internalType": "address",
                    "name": "operator",
                    "type": "address"
                },
                {
                    "indexed": false,
                    "internalType": "bool",
                    "name": "approved",
                    "type": "bool"
                }
            ],
            "name": "ApprovalForAll",
            "type": "event"
        },
        {
            "anonymous": false,
            "inputs": [
                {
                    "indexed": true,
                    "internalType": "address",
                    "name": "previousOwner",
                    "type": "address"
                },
                {
                    "indexed": true,
                    "internalType": "address",
                    "name": "newOwner",
                    "type": "address"
                }
            ],
            "name": "OwnershipTransferred",
            "type": "event"
        },
        {
            "anonymous": false,
            "inputs": [
                {
                    "indexed": true,
                    "internalType": "address",
                    "name": "operator",
                    "type": "address"
                },
                {
                    "indexed": true,
                    "internalType": "address",
                    "name": "from",
                    "type": "address"
                },
                {
                    "indexed": true,
                    "internalType": "address",
                    "name": "to",
                    "type": "address"
                },
                {
                    "indexed": false,
                    "internalType": "uint256[]",
                    "name": "ids",
                    "type": "uint256[]"
                },
                {
                    "indexed": false,
                    "internalType": "uint256[]",
                    "name": "values",
                    "type": "uint256[]"
                }
            ],
            "name": "TransferBatch",
            "type": "event"
        },
        {
            "anonymous": false,
            "inputs": [
                {
                    "indexed": true,
                    "internalType": "address",
                    "name": "operator",
                    "type": "address"
                },
                {
                    "indexed": true,
                    "internalType": "address",
                    "name": "from",
                    "type": "address"
                },
                {
                    "indexed": true,
                    "internalType": "address",
                    "name": "to",
                    "type": "address"
                },
                {
                    "indexed": false,
                    "internalType": "uint256",
                    "name": "id",
                    "type": "uint256"
                },
                {
                    "indexed": false,
                    "internalType": "uint256",
                    "name": "value",
                    "type": "uint256"
                }
            ],
            "name": "TransferSingle",
            "type": "event"
        },
        {
            "anonymous": false,
            "inputs": [
                {
                    "indexed": false,
                    "internalType": "string",
                    "name": "value",
                    "type": "string"
                },
                {
                    "indexed": true,
                    "internalType": "uint256",
                    "name": "id",
                    "type": "uint256"
                }
            ],
            "name": "URI",
            "type": "event"
        },
        {
            "inputs": [
                {
                    "internalType": "address",
                    "name": "account",
                    "type": "address"
                },
                {
                    "internalType": "uint256",
                    "name": "id",
                    "type": "uint256"
                }
            ],
            "name": "balanceOf",
            "outputs": [
                {
                    "internalType": "uint256",
                    "name": "",
                    "type": "uint256"
                }
            ],
            "stateMutability": "view",
            "type": "function"
        },
        {
            "inputs": [
                {
                    "internalType": "address[]",
                    "name": "accounts",
                    "type": "address[]"
                },
                {
                    "internalType": "uint256[]",
                    "name": "ids",
                    "type": "uint256[]"
                }
            ],
            "name": "balanceOfBatch",
            "outputs": [
                {
                    "internalType": "uint256[]",
                    "name": "",
                    "type": "uint256[]"
                }
            ],
            "stateMutability": "view",
            "type": "function"
        },
        {
            "inputs": [
                {
                    "internalType": "address",
                    "name": "account",
                    "type": "address"
                },
                {
                    "internalType": "address",
                    "name": "operator",
                    "type": "address"
                }
            ],
            "name": "isApprovedForAll",
            "outputs": [
                {
                    "internalType": "bool",
                    "name": "",
                    "type": "bool"
                }
            ],
            "stateMutability": "view",
            "type": "function"
        },
        {
            "inputs": [
                {
                    "internalType": "address",
                    "name": "to",
                    "type": "address"
                },
                {
                    "internalType": "uint256",
                    "name": "tokenId",
                    "type": "uint256"
                },
                {
                    "internalType": "uint256",
                    "name": "amount",
                    "type": "uint256"
                }
            ],
            "name": "mint",
            "outputs": [
                {
                    "internalType": "bool",
                    "name": "",
                    "type": "bool"
                }
            ],
            "stateMutability": "nonpayable",
            "type": "function"
        },
        {
            "inputs": [
                {
                    "internalType": "address",
                    "name": "_to",
                    "type": "address"
                },
                {
                    "internalType": "uint256",
                    "name": "_tokenId",
                    "type": "uint256"
                },
                {
                    "internalType": "uint256",
                    "name": "_amount",
                    "type": "uint256"
                },
                {
                    "internalType": "bytes",
                    "name": "_data",
                    "type": "bytes"
                }
            ],
            "name": "mint",
            "outputs": [],
            "stateMutability": "nonpayable",
            "type": "function"
        },
        {
            "inputs": [],
            "name": "owner",
            "outputs": [
                {
                    "internalType": "address",
                    "name": "",
                    "type": "address"
                }
            ],
            "stateMutability": "view",
            "type": "function"
        },
        {
            "inputs": [],
            "name": "renounceOwnership",
            "outputs": [],
            "stateMutability": "nonpayable",
            "type": "function"
        },
        {
            "inputs": [
                {
                    "internalType": "address",
                    "name": "from",
                    "type": "address"
                },
                {
                    "internalType": "address",
                    "name": "to",
                    "type": "address"
                },
                {
                    "internalType": "uint256[]",
                    "name": "ids",
                    "type": "uint256[]"
                },
                {
                    "internalType": "uint256[]",
                    "name": "amounts",
                    "type": "uint256[]"
                },
                {
                    "internalType": "bytes",
                    "name": "data",
                    "type": "bytes"
                }
            ],
            "name": "safeBatchTransferFrom",
            "outputs": [],
            "stateMutability": "nonpayable",
            "type": "function"
        },
        {
            "inputs": [
                {
                    "internalType": "address",
                    "name": "from",
                    "type": "address"
                },
                {
                    "internalType": "address",
                    "name": "to",
                    "type": "address"
                },
                {
                    "internalType": "uint256",
                    "name": "id",
                    "type": "uint256"
                },
                {
                    "internalType": "uint256",
                    "name": "amount",
                    "type": "uint256"
                },
                {
                    "internalType": "bytes",
                    "name": "data",
                    "type": "bytes"
                }
            ],
            "name": "safeTransferFrom",
            "outputs": [],
            "stateMutability": "nonpayable",
            "type": "function"
        },
        {
            "inputs": [
                {
                    "internalType": "address",
                    "name": "operator",
                    "type": "address"
                },
                {
                    "internalType": "bool",
                    "name": "approved",
                    "type": "bool"
                }
            ],
            "name": "setApprovalForAll",
            "outputs": [],
            "stateMutability": "nonpayable",
            "type": "function"
        },
        {
            "inputs": [
                {
                    "internalType": "bytes4",
                    "name": "interfaceId",
                    "type": "bytes4"
                }
            ],
            "name": "supportsInterface",
            "outputs": [
                {
                    "internalType": "bool",
                    "name": "",
                    "type": "bool"
                }
            ],
            "stateMutability": "view",
            "type": "function"
        },
        {
            "inputs": [
                {
                    "internalType": "address",
                    "name": "newOwner",
                    "type": "address"
                }
            ],
            "name": "transferOwnership",
            "outputs": [],
            "stateMutability": "nonpayable",
            "type": "function"
        },
        {
            "inputs": [
                {
                    "internalType": "uint256",
                    "name": "",
                    "type": "uint256"
                }
            ],
            "name": "uri",
            "outputs": [
                {
                    "internalType": "string",
                    "name": "",
                    "type": "string"
                }
            ],
            "stateMutability": "view",
            "type": "function"
        }
    ],
    "bytecode": "60806040523480156200001157600080fd5b506040518060a001604052806061815260200162001ff860619139620000378162000109565b5062000043336200011b565b62000073336000670de0b6b3a76400006040518060800160405280605e8152602001620020b7605e91396200016d565b620000a3336001670de0b6b3a76400006040518060800160405280605e815260200162002115605e91396200016d565b620000d3336002670de0b6b3a76400006040518060800160405280605e815260200162002059605e91396200016d565b62000103336003670de0b6b3a76400006040518060800160405280605e815260200162001f9a605e91396200016d565b62000831565b600262000117828262000575565b5050565b600380546001600160a01b038381166001600160a01b0319831681179093556040519116919082907f8be0079c531659141344cd1fd0a4f28419497f9722a3daafe3b4186f6b6457e090600090a35050565b6200017b8484848462000181565b50505050565b6001600160a01b038416620001e75760405162461bcd60e51b815260206004820152602160248201527f455243313135353a206d696e7420746f20746865207a65726f206164647265736044820152607360f81b60648201526084015b60405180910390fd5b336000620001f585620002a3565b905060006200020485620002a3565b90506000868152602081815260408083206001600160a01b038b168452909152812080548792906200023890849062000641565b909155505060408051878152602081018790526001600160a01b03808a1692600092918716917fc3d58168c5ae7397731d063d5bbf3d657854427343f4c083240f7aacaa2d0f62910160405180910390a46200029a83600089898989620002f9565b50505050505050565b60408051600180825281830190925260609160009190602080830190803683370190505090508281600081518110620002e057620002e062000669565b602090810291909101015292915050565b505050505050565b62000318846001600160a01b0316620004c560201b6200063c1760201c565b15620002f15760405163f23a6e6160e01b81526001600160a01b0385169063f23a6e6190620003549089908990889088908890600401620006c7565b6020604051808303816000875af192505050801562000392575060408051601f3d908101601f191682019092526200038f918101906200070e565b60015b6200045257620003a162000741565b806308c379a003620003e15750620003b86200078d565b80620003c55750620003e3565b8060405162461bcd60e51b8152600401620001de91906200081c565b505b60405162461bcd60e51b815260206004820152603460248201527f455243313135353a207472616e7366657220746f206e6f6e204552433131353560448201527f526563656976657220696d706c656d656e7465720000000000000000000000006064820152608401620001de565b6001600160e01b0319811663f23a6e6160e01b146200029a5760405162461bcd60e51b815260206004820152602860248201527f455243313135353a204552433131353552656365697665722072656a656374656044820152676420746f6b656e7360c01b6064820152608401620001de565b6001600160a01b03163b151590565b634e487b7160e01b600052604160045260246000fd5b600181811c90821680620004ff57607f821691505b6020821081036200052057634e487b7160e01b600052602260045260246000fd5b50919050565b601f8211156200057057600081815260208120601f850160051c810160208610156200054f5750805b601f850160051c820191505b81811015620002f1578281556001016200055b565b505050565b81516001600160401b03811115620005915762000591620004d4565b620005a981620005a28454620004ea565b8462000526565b602080601f831160018114620005e15760008415620005c85750858301515b600019600386901b1c1916600185901b178555620002f1565b600085815260208120601f198616915b828110156200061257888601518255948401946001909101908401620005f1565b5085821015620006315787850151600019600388901b60f8161c191681555b5050505050600190811b01905550565b808201808211156200066357634e487b7160e01b600052601160045260246000fd5b92915050565b634e487b7160e01b600052603260045260246000fd5b6000815180845260005b81811015620006a75760208185018101518683018201520162000689565b506000602082860101526020601f19601f83011685010191505092915050565b6001600160a01b03868116825285166020820152604081018490526060810183905260a06080820181905260009062000703908301846200067f565b979650505050505050565b6000602082840312156200072157600080fd5b81516001600160e01b0319811681146200073a57600080fd5b9392505050565b600060033d11156200075b5760046000803e5060005160e01c5b90565b601f8201601f191681016001600160401b0381118282101715620007865762000786620004d4565b6040525050565b600060443d10156200079c5790565b6040516003193d81016004833e81513d6001600160401b038083116024840183101715620007cc57505050505090565b8285019150815181811115620007e55750505050505090565b843d8701016020828501011115620008005750505050505090565b62000811602082860101876200075e565b509095945050505050565b6020815260006200073a60208301846200067f565b61175980620008416000396000f3fe608060405234801561001057600080fd5b50600436106100ce5760003560e01c8063715018a61161008c578063a22cb46511610066578063a22cb465146101ba578063e985e9c5146101cd578063f242432a14610209578063f2fde38b1461021c57600080fd5b8063715018a614610184578063731133e91461018c5780638da5cb5b1461019f57600080fd5b8062fdd58e146100d357806301ffc9a7146100f95780630e89341c1461011c578063156e29f61461013c5780632eb2c2d61461014f5780634e1273f414610164575b600080fd5b6100e66100e1366004610e6f565b61022f565b6040519081526020015b60405180910390f35b61010c610107366004610eaf565b6102c8565b60405190151581526020016100f0565b61012f61012a366004610ed3565b610318565b6040516100f09190610f32565b61010c61014a366004610f45565b6103ac565b61016261015d3660046110c4565b6103d3565b005b61017761017236600461116e565b61041f565b6040516100f09190611274565b610162610549565b61016261019a366004611287565b61055d565b6003546040516001600160a01b0390911681526020016100f0565b6101626101c83660046112e8565b61056f565b61010c6101db366004611324565b6001600160a01b03918216600090815260016020908152604080832093909416825291909152205460ff1690565b610162610217366004611357565b61057e565b61016261022a3660046113bc565b6105c3565b60006001600160a01b03831661029f5760405162461bcd60e51b815260206004820152602a60248201527f455243313135353a2061646472657373207a65726f206973206e6f742061207660448201526930b634b21037bbb732b960b11b60648201526084015b60405180910390fd5b506000818152602081815260408083206001600160a01b03861684529091529020545b92915050565b60006001600160e01b03198216636cdb3d1360e11b14806102f957506001600160e01b031982166303a24d0760e21b145b806102c257506301ffc9a760e01b6001600160e01b03198316146102c2565b606060028054610327906113d7565b80601f0160208091040260200160405190810160405280929190818152602001828054610353906113d7565b80156103a05780601f10610375576101008083540402835291602001916103a0565b820191906000526020600020905b81548152906001019060200180831161038357829003601f168201915b50505050509050919050565b60006103c98484846040518060200160405280600081525061064b565b5060019392505050565b6001600160a01b0385163314806103ef57506103ef85336101db565b61040b5760405162461bcd60e51b815260040161029690611411565b610418858585858561075f565b5050505050565b606081518351146104845760405162461bcd60e51b815260206004820152602960248201527f455243313135353a206163636f756e747320616e6420696473206c656e677468604482015268040dad2e6dac2e8c6d60bb1b6064820152608401610296565b6000835167ffffffffffffffff8111156104a0576104a0610f78565b6040519080825280602002602001820160405280156104c9578160200160208202803683370190505b50905060005b8451811015610541576105148582815181106104ed576104ed611460565b602002602001015185838151811061050757610507611460565b602002602001015161022f565b82828151811061052657610526611460565b602090810291909101015261053a8161148c565b90506104cf565b509392505050565b61055161093c565b61055b6000610996565b565b6105698484848461064b565b50505050565b61057a3383836109e8565b5050565b6001600160a01b03851633148061059a575061059a85336101db565b6105b65760405162461bcd60e51b815260040161029690611411565b6104188585858585610ac8565b6105cb61093c565b6001600160a01b0381166106305760405162461bcd60e51b815260206004820152602660248201527f4f776e61626c653a206e6577206f776e657220697320746865207a65726f206160448201526564647265737360d01b6064820152608401610296565b61063981610996565b50565b6001600160a01b03163b151590565b6001600160a01b0384166106ab5760405162461bcd60e51b815260206004820152602160248201527f455243313135353a206d696e7420746f20746865207a65726f206164647265736044820152607360f81b6064820152608401610296565b3360006106b785610bf2565b905060006106c485610bf2565b90506000868152602081815260408083206001600160a01b038b168452909152812080548792906106f69084906114a5565b909155505060408051878152602081018790526001600160a01b03808a1692600092918716917fc3d58168c5ae7397731d063d5bbf3d657854427343f4c083240f7aacaa2d0f62910160405180910390a461075683600089898989610c3d565b50505050505050565b81518351146107c15760405162461bcd60e51b815260206004820152602860248201527f455243313135353a2069647320616e6420616d6f756e7473206c656e677468206044820152670dad2e6dac2e8c6d60c31b6064820152608401610296565b6001600160a01b0384166107e75760405162461bcd60e51b8152600401610296906114b8565b3360005b84518110156108ce57600085828151811061080857610808611460565b60200260200101519050600085838151811061082657610826611460565b602090810291909101810151600084815280835260408082206001600160a01b038e1683529093529190912054909150818110156108765760405162461bcd60e51b8152600401610296906114fd565b6000838152602081815260408083206001600160a01b038e8116855292528083208585039055908b168252812080548492906108b39084906114a5565b92505081905550505050806108c79061148c565b90506107eb565b50846001600160a01b0316866001600160a01b0316826001600160a01b03167f4a39dc06d4c0dbc64b70af90fd698a233a518aa5d07e595d983b8c0526c8f7fb878760405161091e929190611547565b60405180910390a4610934818787878787610d98565b505050505050565b6003546001600160a01b0316331461055b5760405162461bcd60e51b815260206004820181905260248201527f4f776e61626c653a2063616c6c6572206973206e6f7420746865206f776e65726044820152606401610296565b600380546001600160a01b038381166001600160a01b0319831681179093556040519116919082907f8be0079c531659141344cd1fd0a4f28419497f9722a3daafe3b4186f6b6457e090600090a35050565b816001600160a01b0316836001600160a01b031603610a5b5760405162461bcd60e51b815260206004820152602960248201527f455243313135353a2073657474696e6720617070726f76616c20737461747573604482015268103337b91039b2b63360b91b6064820152608401610296565b6001600160a01b03838116600081815260016020908152604080832094871680845294825291829020805460ff191686151590811790915591519182527f17307eab39ab6107e8899845ad3d59bd9653f200f220920489ca2b5937696c31910160405180910390a3505050565b6001600160a01b038416610aee5760405162461bcd60e51b8152600401610296906114b8565b336000610afa85610bf2565b90506000610b0785610bf2565b90506000868152602081815260408083206001600160a01b038c16845290915290205485811015610b4a5760405162461bcd60e51b8152600401610296906114fd565b6000878152602081815260408083206001600160a01b038d8116855292528083208985039055908a16825281208054889290610b879084906114a5565b909155505060408051888152602081018890526001600160a01b03808b16928c821692918816917fc3d58168c5ae7397731d063d5bbf3d657854427343f4c083240f7aacaa2d0f62910160405180910390a4610be7848a8a8a8a8a610c3d565b505050505050505050565b60408051600180825281830190925260609160009190602080830190803683370190505090508281600081518110610c2c57610c2c611460565b602090810291909101015292915050565b6001600160a01b0384163b156109345760405163f23a6e6160e01b81526001600160a01b0385169063f23a6e6190610c819089908990889088908890600401611575565b6020604051808303816000875af1925050508015610cbc575060408051601f3d908101601f19168201909252610cb9918101906115ba565b60015b610d6857610cc86115d7565b806308c379a003610d015750610cdc6115f3565b80610ce75750610d03565b8060405162461bcd60e51b81526004016102969190610f32565b505b60405162461bcd60e51b815260206004820152603460248201527f455243313135353a207472616e7366657220746f206e6f6e20455243313135356044820152732932b1b2b4bb32b91034b6b83632b6b2b73a32b960611b6064820152608401610296565b6001600160e01b0319811663f23a6e6160e01b146107565760405162461bcd60e51b81526004016102969061167d565b6001600160a01b0384163b156109345760405163bc197c8160e01b81526001600160a01b0385169063bc197c8190610ddc90899089908890889088906004016116c5565b6020604051808303816000875af1925050508015610e17575060408051601f3d908101601f19168201909252610e14918101906115ba565b60015b610e2357610cc86115d7565b6001600160e01b0319811663bc197c8160e01b146107565760405162461bcd60e51b81526004016102969061167d565b80356001600160a01b0381168114610e6a57600080fd5b919050565b60008060408385031215610e8257600080fd5b610e8b83610e53565b946020939093013593505050565b6001600160e01b03198116811461063957600080fd5b600060208284031215610ec157600080fd5b8135610ecc81610e99565b9392505050565b600060208284031215610ee557600080fd5b5035919050565b6000815180845260005b81811015610f1257602081850181015186830182015201610ef6565b506000602082860101526020601f19601f83011685010191505092915050565b602081526000610ecc6020830184610eec565b600080600060608486031215610f5a57600080fd5b610f6384610e53565b95602085013595506040909401359392505050565b634e487b7160e01b600052604160045260246000fd5b601f8201601f1916810167ffffffffffffffff81118282101715610fb457610fb4610f78565b6040525050565b600067ffffffffffffffff821115610fd557610fd5610f78565b5060051b60200190565b600082601f830112610ff057600080fd5b81356020610ffd82610fbb565b60405161100a8282610f8e565b83815260059390931b850182019282810191508684111561102a57600080fd5b8286015b84811015611045578035835291830191830161102e565b509695505050505050565b600082601f83011261106157600080fd5b813567ffffffffffffffff81111561107b5761107b610f78565b604051611092601f8301601f191660200182610f8e565b8181528460208386010111156110a757600080fd5b816020850160208301376000918101602001919091529392505050565b600080600080600060a086880312156110dc57600080fd5b6110e586610e53565b94506110f360208701610e53565b9350604086013567ffffffffffffffff8082111561111057600080fd5b61111c89838a01610fdf565b9450606088013591508082111561113257600080fd5b61113e89838a01610fdf565b9350608088013591508082111561115457600080fd5b5061116188828901611050565b9150509295509295909350565b6000806040838503121561118157600080fd5b823567ffffffffffffffff8082111561119957600080fd5b818501915085601f8301126111ad57600080fd5b813560206111ba82610fbb565b6040516111c78282610f8e565b83815260059390931b85018201928281019150898411156111e757600080fd5b948201945b8386101561120c576111fd86610e53565b825294820194908201906111ec565b9650508601359250508082111561122257600080fd5b5061122f85828601610fdf565b9150509250929050565b600081518084526020808501945080840160005b838110156112695781518752958201959082019060010161124d565b509495945050505050565b602081526000610ecc6020830184611239565b6000806000806080858703121561129d57600080fd5b6112a685610e53565b93506020850135925060408501359150606085013567ffffffffffffffff8111156112d057600080fd5b6112dc87828801611050565b91505092959194509250565b600080604083850312156112fb57600080fd5b61130483610e53565b91506020830135801515811461131957600080fd5b809150509250929050565b6000806040838503121561133757600080fd5b61134083610e53565b915061134e60208401610e53565b90509250929050565b600080600080600060a0868803121561136f57600080fd5b61137886610e53565b945061138660208701610e53565b93506040860135925060608601359150608086013567ffffffffffffffff8111156113b057600080fd5b61116188828901611050565b6000602082840312156113ce57600080fd5b610ecc82610e53565b600181811c908216806113eb57607f821691505b60208210810361140b57634e487b7160e01b600052602260045260246000fd5b50919050565b6020808252602f908201527f455243313135353a2063616c6c6572206973206e6f7420746f6b656e206f776e60408201526e195c881b9bdc88185c1c1c9bdd9959608a1b606082015260800190565b634e487b7160e01b600052603260045260246000fd5b634e487b7160e01b600052601160045260246000fd5b60006001820161149e5761149e611476565b5060010190565b808201808211156102c2576102c2611476565b60208082526025908201527f455243313135353a207472616e7366657220746f20746865207a65726f206164604082015264647265737360d81b606082015260800190565b6020808252602a908201527f455243313135353a20696e73756666696369656e742062616c616e636520666f60408201526939103a3930b739b332b960b11b606082015260800190565b60408152600061155a6040830185611239565b828103602084015261156c8185611239565b95945050505050565b6001600160a01b03868116825285166020820152604081018490526060810183905260a0608082018190526000906115af90830184610eec565b979650505050505050565b6000602082840312156115cc57600080fd5b8151610ecc81610e99565b600060033d11156115f05760046000803e5060005160e01c5b90565b600060443d10156116015790565b6040516003193d81016004833e81513d67ffffffffffffffff816024840111818411171561163157505050505090565b82850191508151818111156116495750505050505090565b843d87010160208285010111156116635750505050505090565b61167260208286010187610f8e565b509095945050505050565b60208082526028908201527f455243313135353a204552433131353552656365697665722072656a656374656040820152676420746f6b656e7360c01b606082015260800190565b6001600160a01b0386811682528516602082015260a0604082018190526000906116f190830186611239565b82810360608401526117038186611239565b905082810360808401526117178185610eec565b9897505050505050505056fea264697066735822122093e7a65c5e4ed0ed6e536e512d9c56903055c84f104874ae389465bcbcfee8d564736f6c6343000810003368747470733a2f2f62616679626569636c3577757833796f686c347a756937786136647079746734656c3365337162616c3235776c797375706376356b6e6a74346d6d2e697066732e6e667473746f726167652e6c696e6b2f332e6a706768747470733a2f2f62616679626569636c3577757833796f686c347a756937786136647079746734656c3365337162616c3235776c797375706376356b6e6a74346d6d2e697066732e6e667473746f726167652e6c696e6b2f7b69647d2e6a706768747470733a2f2f62616679626569636c3577757833796f686c347a756937786136647079746734656c3365337162616c3235776c797375706376356b6e6a74346d6d2e697066732e6e667473746f726167652e6c696e6b2f322e6a706768747470733a2f2f62616679626569636c3577757833796f686c347a756937786136647079746734656c3365337162616c3235776c797375706376356b6e6a74346d6d2e697066732e6e667473746f726167652e6c696e6b2f302e6a706768747470733a2f2f62616679626569636c3577757833796f686c347a756937786136647079746734656c3365337162616c3235776c797375706376356b6e6a74346d6d2e697066732e6e667473746f726167652e6c696e6b2f312e6a7067",
    "sourcePath": "c:/Users/kolam/Desktop/market/contracts/Collection.sol",
    "compiler": {
        "name": "solc",
        "version": "0.8.16+commit.07a7930e"
    },
    "functionHashes": {
        "balanceOf(address,uint256)": "00fdd58e",
        "balanceOfBatch(address[],uint256[])": "4e1273f4",
        "isApprovedForAll(address,address)": "e985e9c5",
        "mint(address,uint256,uint256)": "156e29f6",
        "mint(address,uint256,uint256,bytes)": "731133e9",
        "owner()": "8da5cb5b",
        "renounceOwnership()": "715018a6",
        "safeBatchTransferFrom(address,address,uint256[],uint256[],bytes)": "2eb2c2d6",
        "safeTransferFrom(address,address,uint256,uint256,bytes)": "f242432a",
        "setApprovalForAll(address,bool)": "a22cb465",
        "supportsInterface(bytes4)": "01ffc9a7",
        "transferOwnership(address)": "f2fde38b",
        "uri(uint256)": "0e89341c"
    },
    "gasEstimates": {
        "creation": {
            "codeDepositCost": "1195400",
            "executionCost": "infinite",
            "totalCost": "infinite"
        },
        "external": {
            "balanceOf(address,uint256)": "2677",
            "balanceOfBatch(address[],uint256[])": "infinite",
            "isApprovedForAll(address,address)": "infinite",
            "mint(address,uint256,uint256)": "infinite",
            "mint(address,uint256,uint256,bytes)": "infinite",
            "owner()": "2368",
            "renounceOwnership()": "infinite",
            "safeBatchTransferFrom(address,address,uint256[],uint256[],bytes)": "infinite",
            "safeTransferFrom(address,address,uint256,uint256,bytes)": "infinite",
            "setApprovalForAll(address,bool)": "26705",
            "supportsInterface(bytes4)": "555",
            "transferOwnership(address)": "28424",
            "uri(uint256)": "infinite"
        }
    }
}