{
    "contractName": "Market",
    "abi": [
        {
            "inputs": [
                {
                    "internalType": "address",
                    "name": "_paymentT",
                    "type": "address"
                },
                {
                    "internalType": "uint256",
                    "name": "_feePercent",
                    "type": "uint256"
                }
            ],
            "stateMutability": "nonpayable",
            "type": "constructor"
        },
        {
            "anonymous": false,
            "inputs": [
                {
                    "indexed": false,
                    "internalType": "address",
                    "name": "buyer",
                    "type": "address"
                },
                {
                    "indexed": false,
                    "internalType": "enum Market.Type",
                    "name": "typeToken",
                    "type": "uint8"
                },
                {
                    "indexed": false,
                    "internalType": "uint256",
                    "name": "amount",
                    "type": "uint256"
                },
                {
                    "indexed": false,
                    "internalType": "address",
                    "name": "token",
                    "type": "address"
                },
                {
                    "indexed": false,
                    "internalType": "bytes32",
                    "name": "hashOrder",
                    "type": "bytes32"
                }
            ],
            "name": "BoughtOrder",
            "type": "event"
        },
        {
            "anonymous": false,
            "inputs": [
                {
                    "indexed": false,
                    "internalType": "bytes32",
                    "name": "hashOrder",
                    "type": "bytes32"
                },
                {
                    "indexed": false,
                    "internalType": "uint256",
                    "name": "timestamp",
                    "type": "uint256"
                }
            ],
            "name": "CancelOrderByAdmin",
            "type": "event"
        },
        {
            "anonymous": false,
            "inputs": [
                {
                    "indexed": false,
                    "internalType": "address",
                    "name": "seller",
                    "type": "address"
                },
                {
                    "indexed": false,
                    "internalType": "enum Market.Type",
                    "name": "typeToken",
                    "type": "uint8"
                },
                {
                    "indexed": false,
                    "internalType": "uint256",
                    "name": "amount",
                    "type": "uint256"
                },
                {
                    "indexed": false,
                    "internalType": "address",
                    "name": "token",
                    "type": "address"
                },
                {
                    "indexed": false,
                    "internalType": "bytes32",
                    "name": "hashOrder",
                    "type": "bytes32"
                }
            ],
            "name": "CreatedOrder",
            "type": "event"
        },
        {
            "anonymous": false,
            "inputs": [
                {
                    "indexed": false,
                    "internalType": "address",
                    "name": "account",
                    "type": "address"
                }
            ],
            "name": "Paused",
            "type": "event"
        },
        {
            "anonymous": false,
            "inputs": [
                {
                    "indexed": true,
                    "internalType": "bytes32",
                    "name": "role",
                    "type": "bytes32"
                },
                {
                    "indexed": true,
                    "internalType": "bytes32",
                    "name": "previousAdminRole",
                    "type": "bytes32"
                },
                {
                    "indexed": true,
                    "internalType": "bytes32",
                    "name": "newAdminRole",
                    "type": "bytes32"
                }
            ],
            "name": "RoleAdminChanged",
            "type": "event"
        },
        {
            "anonymous": false,
            "inputs": [
                {
                    "indexed": true,
                    "internalType": "bytes32",
                    "name": "role",
                    "type": "bytes32"
                },
                {
                    "indexed": true,
                    "internalType": "address",
                    "name": "account",
                    "type": "address"
                },
                {
                    "indexed": true,
                    "internalType": "address",
                    "name": "sender",
                    "type": "address"
                }
            ],
            "name": "RoleGranted",
            "type": "event"
        },
        {
            "anonymous": false,
            "inputs": [
                {
                    "indexed": true,
                    "internalType": "bytes32",
                    "name": "role",
                    "type": "bytes32"
                },
                {
                    "indexed": true,
                    "internalType": "address",
                    "name": "account",
                    "type": "address"
                },
                {
                    "indexed": true,
                    "internalType": "address",
                    "name": "sender",
                    "type": "address"
                }
            ],
            "name": "RoleRevoked",
            "type": "event"
        },
        {
            "anonymous": false,
            "inputs": [
                {
                    "indexed": false,
                    "internalType": "address",
                    "name": "account",
                    "type": "address"
                }
            ],
            "name": "Unpaused",
            "type": "event"
        },
        {
            "inputs": [],
            "name": "ADMIN",
            "outputs": [
                {
                    "internalType": "bytes32",
                    "name": "",
                    "type": "bytes32"
                }
            ],
            "stateMutability": "view",
            "type": "function"
        },
        {
            "inputs": [],
            "name": "DEFAULT_ADMIN_ROLE",
            "outputs": [
                {
                    "internalType": "bytes32",
                    "name": "",
                    "type": "bytes32"
                }
            ],
            "stateMutability": "view",
            "type": "function"
        },
        {
            "inputs": [
                {
                    "internalType": "bytes32",
                    "name": "hashOrder",
                    "type": "bytes32"
                },
                {
                    "internalType": "uint256",
                    "name": "amount",
                    "type": "uint256"
                }
            ],
            "name": "buyFromOrder",
            "outputs": [],
            "stateMutability": "nonpayable",
            "type": "function"
        },
        {
            "inputs": [
                {
                    "internalType": "bytes32",
                    "name": "_hashOrder",
                    "type": "bytes32"
                }
            ],
            "name": "cancelOrder",
            "outputs": [],
            "stateMutability": "nonpayable",
            "type": "function"
        },
        {
            "inputs": [
                {
                    "internalType": "uint256",
                    "name": "_amount",
                    "type": "uint256"
                }
            ],
            "name": "changeFeePercent",
            "outputs": [],
            "stateMutability": "nonpayable",
            "type": "function"
        },
        {
            "inputs": [
                {
                    "internalType": "address",
                    "name": "token",
                    "type": "address"
                }
            ],
            "name": "changePaymentToken",
            "outputs": [
                {
                    "internalType": "address",
                    "name": "",
                    "type": "address"
                }
            ],
            "stateMutability": "nonpayable",
            "type": "function"
        },
        {
            "inputs": [
                {
                    "internalType": "string",
                    "name": "_type",
                    "type": "string"
                },
                {
                    "internalType": "uint256",
                    "name": "_price",
                    "type": "uint256"
                },
                {
                    "internalType": "address",
                    "name": "_target",
                    "type": "address"
                },
                {
                    "internalType": "uint256",
                    "name": "_id",
                    "type": "uint256"
                },
                {
                    "internalType": "uint256",
                    "name": "_amount",
                    "type": "uint256"
                },
                {
                    "internalType": "bytes",
                    "name": "_data",
                    "type": "bytes"
                }
            ],
            "name": "createOrder",
            "outputs": [
                {
                    "internalType": "bytes32",
                    "name": "",
                    "type": "bytes32"
                }
            ],
            "stateMutability": "nonpayable",
            "type": "function"
        },
        {
            "inputs": [
                {
                    "internalType": "bytes32",
                    "name": "role",
                    "type": "bytes32"
                }
            ],
            "name": "getRoleAdmin",
            "outputs": [
                {
                    "internalType": "bytes32",
                    "name": "",
                    "type": "bytes32"
                }
            ],
            "stateMutability": "view",
            "type": "function"
        },
        {
            "inputs": [
                {
                    "internalType": "bytes32",
                    "name": "role",
                    "type": "bytes32"
                },
                {
                    "internalType": "address",
                    "name": "account",
                    "type": "address"
                }
            ],
            "name": "grantRole",
            "outputs": [],
            "stateMutability": "nonpayable",
            "type": "function"
        },
        {
            "inputs": [
                {
                    "internalType": "bytes32",
                    "name": "role",
                    "type": "bytes32"
                },
                {
                    "internalType": "address",
                    "name": "account",
                    "type": "address"
                }
            ],
            "name": "hasRole",
            "outputs": [
                {
                    "internalType": "bool",
                    "name": "",
                    "type": "bool"
                }
            ],
            "stateMutability": "view",
            "type": "function"
        },
        {
            "inputs": [
                {
                    "internalType": "address",
                    "name": "",
                    "type": "address"
                },
                {
                    "internalType": "address",
                    "name": "",
                    "type": "address"
                },
                {
                    "internalType": "uint256[]",
                    "name": "",
                    "type": "uint256[]"
                },
                {
                    "internalType": "uint256[]",
                    "name": "",
                    "type": "uint256[]"
                },
                {
                    "internalType": "bytes",
                    "name": "",
                    "type": "bytes"
                }
            ],
            "name": "onERC1155BatchReceived",
            "outputs": [
                {
                    "internalType": "bytes4",
                    "name": "",
                    "type": "bytes4"
                }
            ],
            "stateMutability": "nonpayable",
            "type": "function"
        },
        {
            "inputs": [
                {
                    "internalType": "address",
                    "name": "",
                    "type": "address"
                },
                {
                    "internalType": "address",
                    "name": "",
                    "type": "address"
                },
                {
                    "internalType": "uint256",
                    "name": "",
                    "type": "uint256"
                },
                {
                    "internalType": "uint256",
                    "name": "",
                    "type": "uint256"
                },
                {
                    "internalType": "bytes",
                    "name": "",
                    "type": "bytes"
                }
            ],
            "name": "onERC1155Received",
            "outputs": [
                {
                    "internalType": "bytes4",
                    "name": "",
                    "type": "bytes4"
                }
            ],
            "stateMutability": "nonpayable",
            "type": "function"
        },
        {
            "inputs": [
                {
                    "internalType": "address",
                    "name": "",
                    "type": "address"
                },
                {
                    "internalType": "address",
                    "name": "",
                    "type": "address"
                },
                {
                    "internalType": "uint256",
                    "name": "",
                    "type": "uint256"
                },
                {
                    "internalType": "bytes",
                    "name": "",
                    "type": "bytes"
                }
            ],
            "name": "onERC721Received",
            "outputs": [
                {
                    "internalType": "bytes4",
                    "name": "",
                    "type": "bytes4"
                }
            ],
            "stateMutability": "nonpayable",
            "type": "function"
        },
        {
            "inputs": [
                {
                    "internalType": "bytes32",
                    "name": "",
                    "type": "bytes32"
                }
            ],
            "name": "orderByHash",
            "outputs": [
                {
                    "internalType": "address",
                    "name": "seller",
                    "type": "address"
                },
                {
                    "internalType": "address",
                    "name": "target",
                    "type": "address"
                },
                {
                    "internalType": "uint256",
                    "name": "amount",
                    "type": "uint256"
                },
                {
                    "internalType": "uint256",
                    "name": "id",
                    "type": "uint256"
                },
                {
                    "internalType": "uint256",
                    "name": "price",
                    "type": "uint256"
                },
                {
                    "internalType": "bytes",
                    "name": "data",
                    "type": "bytes"
                },
                {
                    "internalType": "enum Market.Type",
                    "name": "typeToken",
                    "type": "uint8"
                },
                {
                    "internalType": "enum Market.Status",
                    "name": "status",
                    "type": "uint8"
                }
            ],
            "stateMutability": "view",
            "type": "function"
        },
        {
            "inputs": [],
            "name": "paused",
            "outputs": [
                {
                    "internalType": "bool",
                    "name": "",
                    "type": "bool"
                }
            ],
            "stateMutability": "view",
            "type": "function"
        },
        {
            "inputs": [],
            "name": "paymentToken",
            "outputs": [
                {
                    "internalType": "address",
                    "name": "",
                    "type": "address"
                }
            ],
            "stateMutability": "view",
            "type": "function"
        },
        {
            "inputs": [
                {
                    "internalType": "bytes32",
                    "name": "role",
                    "type": "bytes32"
                },
                {
                    "internalType": "address",
                    "name": "account",
                    "type": "address"
                }
            ],
            "name": "renounceRole",
            "outputs": [],
            "stateMutability": "nonpayable",
            "type": "function"
        },
        {
            "inputs": [
                {
                    "internalType": "bytes32",
                    "name": "role",
                    "type": "bytes32"
                },
                {
                    "internalType": "address",
                    "name": "account",
                    "type": "address"
                }
            ],
            "name": "revokeRole",
            "outputs": [],
            "stateMutability": "nonpayable",
            "type": "function"
        },
        {
            "inputs": [
                {
                    "internalType": "bytes4",
                    "name": "interfaceId",
                    "type": "bytes4"
                }
            ],
            "name": "supportsInterface",
            "outputs": [
                {
                    "internalType": "bool",
                    "name": "",
                    "type": "bool"
                }
            ],
            "stateMutability": "view",
            "type": "function"
        }
    ],
    "bytecode": "60806040523480156200001157600080fd5b506040516200207038038062002070833981016040819052620000349162000140565b6001805460ff191690556004819055600380546001600160a01b0319166001600160a01b0384161790556200008a7fdf8b4c520ffe197c5343c6f5aec59570151ef9a492f2c624fd45ddde6135ec42336200009f565b620000976000336200009f565b50506200017c565b6000828152602081815260408083206001600160a01b038516845290915290205460ff166200013c576000828152602081815260408083206001600160a01b03851684529091529020805460ff19166001179055620000fb3390565b6001600160a01b0316816001600160a01b0316837f2f8788117e7eff1d82e926ec794901d17c78024a50270940304540a733656f0d60405160405180910390a45b5050565b600080604083850312156200015457600080fd5b82516001600160a01b03811681146200016c57600080fd5b6020939093015192949293505050565b611ee4806200018c6000396000f3fe608060405234801561001057600080fd5b50600436106101215760003560e01c80634558d717116100ad578063bc197c8111610071578063bc197c8114610290578063d547741f146102af578063ec196001146102c2578063f14fa00d146102e9578063f23a6e61146102fc57600080fd5b80634558d717146102445780635c975abb146102575780637489ec231461026257806391d1485414610275578063a217fddf1461028857600080fd5b80632f2ff15d116100f45780632f2ff15d146101cb5780633013ce29146101e057806332a73a1b1461020b57806334eddf3e1461021e57806336568abe1461023157600080fd5b806301ffc9a714610126578063150b7a021461014e578063248a9ca3146101855780632a0acc6a146101b6575b600080fd5b610139610134366004611485565b61031b565b60405190151581526020015b60405180910390f35b61016c61015c36600461157d565b630a85bd0160e11b949350505050565b6040516001600160e01b03199091168152602001610145565b6101a86101933660046115e5565b60009081526020819052604090206001015490565b604051908152602001610145565b6101a8600080516020611e8f83398151915281565b6101de6101d93660046115fe565b610352565b005b6003546101f3906001600160a01b031681565b6040516001600160a01b039091168152602001610145565b6101a8610219366004611673565b61037c565b6101de61022c3660046115e5565b6105f6565b6101de61023f3660046115fe565b61061c565b6101f3610252366004611713565b61069a565b60015460ff16610139565b6101de6102703660046115e5565b6106e0565b6101396102833660046115fe565b61089e565b6101a8600081565b61016c61029e3660046117a3565b63bc197c8160e01b95945050505050565b6101de6102bd3660046115fe565b6108c7565b6102d56102d03660046115e5565b6108ec565b6040516101459897969594939291906118d1565b6101de6102f7366004611941565b6109cc565b61016c61030a366004611963565b63f23a6e6160e01b95945050505050565b60006001600160e01b03198216637965db0b60e01b148061034c57506301ffc9a760e01b6001600160e01b03198316145b92915050565b60008281526020819052604090206001015461036d81610d28565b6103778383610d35565b505050565b6000610386610db9565b60008989898960405160200161039f94939291906119f1565b60408051808303601f1901815282825280516020918201206000818152600283528390208054336001600160a01b03199182161782556001820180549091166001600160a01b038e16179055601f8e018390048302850183019093528c845293509091610426918d908d9081908401838280828437600092019190915250610e0192505050565b60068201805460ff1916600183818111156104435761044361189d565b02179055506002810186905560038101879055600481018990556005810161046c858783611aae565b5060068101805461010061ff001982161790915560009060ff1660018111156104975761049761189d565b0361050757604051635c46a7ef60e11b81526001600160a01b0389169063b88d4fde906104d090339030908c908b908b90600401611b6f565b600060405180830381600087803b1580156104ea57600080fd5b505af11580156104fe573d6000803e3d6000fd5b505050506105a1565b6001600682015460ff1660018111156105225761052261189d565b0361055d57604051637921219560e11b81526001600160a01b0389169063f242432a906104d090339030908c908c908c908c90600401611ba3565b60405162461bcd60e51b815260206004820152601460248201527326bab9ba103132903330b4b61032b0b93634b2b960611b60448201526064015b60405180910390fd5b60068101546040517f4755e5b252ad12dd8e63c34ea7e2fe8b3f08652a116f5ad1e47ce9cfad37b0e9916105e091339160ff16908a908d908890611bea565b60405180910390a1509998505050505050505050565b61060e600080516020611e8f8339815191523361089e565b61061757600080fd5b600455565b6001600160a01b038116331461068c5760405162461bcd60e51b815260206004820152602f60248201527f416363657373436f6e74726f6c3a2063616e206f6e6c792072656e6f756e636560448201526e103937b632b9903337b91039b2b63360891b6064820152608401610598565b6106968282610f10565b5050565b60006106b4600080516020611e8f8339815191523361089e565b6106bd57600080fd5b50600380546001600160a01b039092166001600160a01b03199092168217905590565b6106f8600080516020611e8f8339815191523361089e565b61070157600080fd5b600081815260026020526040812090600682015460ff1660018111156107295761072961189d565b036107a35760018101546003820154604051635c46a7ef60e11b81526001600160a01b039092169163b88d4fde9161076c91339130916005880190600401611ca7565b600060405180830381600087803b15801561078657600080fd5b505af115801561079a573d6000803e3d6000fd5b50505050610808565b6001600682015460ff1660018111156107be576107be61189d565b0361055d57600181015460038201546002830154604051637921219560e11b81526001600160a01b039093169263f242432a9261076c923392309291906005890190600401611ce4565b604080518381524260208201527f87cc834229675baec0af60410f9eb4a93e4127452701a1800b6a3876ff8469e7910160405180910390a16000828152600260208190526040822080546001600160a01b03199081168255600182018054909116905590810182905560038101829055600481018290559061088d6005830182611437565b50600601805461ffff191690555050565b6000918252602082815260408084206001600160a01b0393909316845291905290205460ff1690565b6000828152602081905260409020600101546108e281610d28565b6103778383610f10565b60026020819052600091825260409091208054600182015492820154600383015460048401546005850180546001600160a01b03958616979095169593949293919261093790611a26565b80601f016020809104026020016040519081016040528092919081815260200182805461096390611a26565b80156109b05780601f10610985576101008083540402835291602001916109b0565b820191906000526020600020905b81548152906001019060200180831161099357829003601f168201915b5050506006909301549192505060ff8082169161010090041688565b600082815260026020819052604090912090810154610a255760405162461bcd60e51b81526020600482015260156024820152744f7264657220697320656d7074792f574841543f2160581b6044820152606401610598565b8181600201541015610a8b5760405162461bcd60e51b815260206004820152602960248201527f4e6f7420656e6f75676820746f6b656e20696e206f726465722c2072657772696044820152681d1948185b5bdd5b9d60ba1b6064820152608401610598565b6000828260040154610a9d9190611d34565b600354909150610ab8906001600160a01b0316333084610f75565b6000610ac382610fe6565b600354909150610add906001600160a01b0316338361101a565b6000600684015460ff166001811115610af857610af861189d565b03610bce5760018301546003840154604051632142170760e11b815230600482015233602482015260448101919091526001600160a01b03909116906342842e0e90606401600060405180830381600087803b158015610b5757600080fd5b505af1158015610b6b573d6000803e3d6000fd5b5050506000868152600260208190526040822080546001600160a01b03199081168255600182018054909116905590810182905560038101829055600481018290559150610bbc6005830182611437565b50600601805461ffff19169055610ccb565b6001600684015460ff166001811115610be957610be961189d565b0361055d5760018301546003840154604051637921219560e11b81526001600160a01b039092169163f242432a91610c2e91309133918a9060058b0190600401611ce4565b600060405180830381600087803b158015610c4857600080fd5b505af1158015610c5c573d6000803e3d6000fd5b50505050838360020154610c709190611d53565b60028401819055600003610ccb576000858152600260208190526040822080546001600160a01b031990811682556001820180549091169055908101829055600381018290556004810182905590610bbc6005830182611437565b600683015460018401546040517f429f42aa589c07009f3e62be46e27ac4beced6f275bc881ac1c86f04778d22d792610d1992339260ff9092169189916001600160a01b0316908b90611bea565b60405180910390a15050505050565b610d32813361104a565b50565b610d3f828261089e565b610696576000828152602081815260408083206001600160a01b03851684529091529020805460ff19166001179055610d753390565b6001600160a01b0316816001600160a01b0316837f2f8788117e7eff1d82e926ec794901d17c78024a50270940304540a733656f0d60405160405180910390a45050565b60015460ff1615610dff5760405162461bcd60e51b815260206004820152601060248201526f14185d5cd8589b194e881c185d5cd95960821b6044820152606401610598565b565b6040516545524337323160d01b60208201526000906026016040516020818303038152906040528051906020012082604051602001610e409190611d66565b6040516020818303038152906040528051906020012003610e6357506000919050565b604051664552433131353560c81b60208201526027016040516020818303038152906040528051906020012082604051602001610ea09190611d66565b6040516020818303038152906040528051906020012003610ec357506001919050565b60405162461bcd60e51b815260206004820152601860248201527f57726f6e67206e616d65206f6620746f6b656e207479706500000000000000006044820152606401610598565b919050565b610f1a828261089e565b15610696576000828152602081815260408083206001600160a01b0385168085529252808320805460ff1916905551339285917ff6391f5c32d9c69d2a47ea670b442974b53935d1edc7fd64eb21e047a839171b9190a45050565b6040516001600160a01b0380851660248301528316604482015260648101829052610fe09085906323b872dd60e01b906084015b60408051601f198184030181529190526020810180516001600160e01b03166001600160e01b0319909316929092179091526110ae565b50505050565b6000806004546103e884610ffa9190611d82565b6110049190611d34565b905060006110128285611d53565b949350505050565b6040516001600160a01b03831660248201526044810182905261037790849063a9059cbb60e01b90606401610fa9565b611054828261089e565b6106965761106c816001600160a01b03166014611180565b611077836020611180565b604051602001611088929190611da4565b60408051601f198184030181529082905262461bcd60e51b825261059891600401611e19565b6000611103826040518060400160405280602081526020017f5361666545524332303a206c6f772d6c6576656c2063616c6c206661696c6564815250856001600160a01b03166113239092919063ffffffff16565b80519091501561037757808060200190518101906111219190611e2c565b6103775760405162461bcd60e51b815260206004820152602a60248201527f5361666545524332303a204552433230206f7065726174696f6e20646964206e6044820152691bdd081cdd58d8d9595960b21b6064820152608401610598565b6060600061118f836002611d34565b61119a906002611e4e565b67ffffffffffffffff8111156111b2576111b26114c6565b6040519080825280601f01601f1916602001820160405280156111dc576020820181803683370190505b509050600360fc1b816000815181106111f7576111f7611e61565b60200101906001600160f81b031916908160001a905350600f60fb1b8160018151811061122657611226611e61565b60200101906001600160f81b031916908160001a905350600061124a846002611d34565b611255906001611e4e565b90505b60018111156112cd576f181899199a1a9b1b9c1cb0b131b232b360811b85600f166010811061128957611289611e61565b1a60f81b82828151811061129f5761129f611e61565b60200101906001600160f81b031916908160001a90535060049490941c936112c681611e77565b9050611258565b50831561131c5760405162461bcd60e51b815260206004820181905260248201527f537472696e67733a20686578206c656e67746820696e73756666696369656e746044820152606401610598565b9392505050565b60606110128484600085856001600160a01b0385163b6113855760405162461bcd60e51b815260206004820152601d60248201527f416464726573733a2063616c6c20746f206e6f6e2d636f6e74726163740000006044820152606401610598565b600080866001600160a01b031685876040516113a19190611d66565b60006040518083038185875af1925050503d80600081146113de576040519150601f19603f3d011682016040523d82523d6000602084013e6113e3565b606091505b50915091506113f38282866113fe565b979650505050505050565b6060831561140d57508161131c565b82511561141d5782518084602001fd5b8160405162461bcd60e51b81526004016105989190611e19565b50805461144390611a26565b6000825580601f10611453575050565b601f016020900490600052602060002090810190610d3291905b80821115611481576000815560010161146d565b5090565b60006020828403121561149757600080fd5b81356001600160e01b03198116811461131c57600080fd5b80356001600160a01b0381168114610f0b57600080fd5b634e487b7160e01b600052604160045260246000fd5b604051601f8201601f1916810167ffffffffffffffff81118282101715611505576115056114c6565b604052919050565b600082601f83011261151e57600080fd5b813567ffffffffffffffff811115611538576115386114c6565b61154b601f8201601f19166020016114dc565b81815284602083860101111561156057600080fd5b816020850160208301376000918101602001919091529392505050565b6000806000806080858703121561159357600080fd5b61159c856114af565b93506115aa602086016114af565b925060408501359150606085013567ffffffffffffffff8111156115cd57600080fd5b6115d98782880161150d565b91505092959194509250565b6000602082840312156115f757600080fd5b5035919050565b6000806040838503121561161157600080fd5b82359150611621602084016114af565b90509250929050565b60008083601f84011261163c57600080fd5b50813567ffffffffffffffff81111561165457600080fd5b60208301915083602082850101111561166c57600080fd5b9250929050565b60008060008060008060008060c0898b03121561168f57600080fd5b883567ffffffffffffffff808211156116a757600080fd5b6116b38c838d0161162a565b909a50985060208b013597508891506116ce60408c016114af565b965060608b0135955060808b0135945060a08b01359150808211156116f257600080fd5b506116ff8b828c0161162a565b999c989b5096995094979396929594505050565b60006020828403121561172557600080fd5b61131c826114af565b600082601f83011261173f57600080fd5b8135602067ffffffffffffffff82111561175b5761175b6114c6565b8160051b61176a8282016114dc565b928352848101820192828101908785111561178457600080fd5b83870192505b848310156113f35782358252918301919083019061178a565b600080600080600060a086880312156117bb57600080fd5b6117c4866114af565b94506117d2602087016114af565b9350604086013567ffffffffffffffff808211156117ef57600080fd5b6117fb89838a0161172e565b9450606088013591508082111561181157600080fd5b61181d89838a0161172e565b9350608088013591508082111561183357600080fd5b506118408882890161150d565b9150509295509295909350565b60005b83811015611868578181015183820152602001611850565b50506000910152565b6000815180845261188981602086016020860161184d565b601f01601f19169290920160200192915050565b634e487b7160e01b600052602160045260246000fd5b60028110610d3257634e487b7160e01b600052602160045260246000fd5b6001600160a01b0389811682528816602082015260408101879052606081018690526080810185905261010060a0820181905260009061191383820187611871565b91505061191f846118b3565b8360c083015261192e836118b3565b8260e08301529998505050505050505050565b6000806040838503121561195457600080fd5b50508035926020909101359150565b600080600080600060a0868803121561197b57600080fd5b611984866114af565b9450611992602087016114af565b93506040860135925060608601359150608086013567ffffffffffffffff8111156119bc57600080fd5b6118408882890161150d565b81835281816020850137506000828201602090810191909152601f909101601f19169091010190565b606081526000611a056060830186886119c8565b6020830194909452506001600160a01b039190911660409091015292915050565b600181811c90821680611a3a57607f821691505b602082108103611a5a57634e487b7160e01b600052602260045260246000fd5b50919050565b601f82111561037757600081815260208120601f850160051c81016020861015611a875750805b601f850160051c820191505b81811015611aa657828155600101611a93565b505050505050565b67ffffffffffffffff831115611ac657611ac66114c6565b611ada83611ad48354611a26565b83611a60565b6000601f841160018114611b0e5760008515611af65750838201355b600019600387901b1c1916600186901b178355611b68565b600083815260209020601f19861690835b82811015611b3f5786850135825560209485019460019092019101611b1f565b5086821015611b5c5760001960f88860031b161c19848701351681555b505060018560011b0183555b5050505050565b6001600160a01b03868116825285166020820152604081018490526080606082018190526000906113f390830184866119c8565b6001600160a01b03878116825286166020820152604081018590526060810184905260a060808201819052600090611bde90830184866119c8565b98975050505050505050565b6001600160a01b03868116825260a0820190611c05876118b3565b8660208401528560408401528085166060840152508260808301529695505050505050565b60008154611c3781611a26565b808552602060018381168015611c545760018114611c6e57611c9c565b60ff1985168884015283151560051b880183019550611c9c565b866000528260002060005b85811015611c945781548a8201860152908301908401611c79565b890184019650505b505050505092915050565b6001600160a01b0385811682528416602082015260408101839052608060608201819052600090611cda90830184611c2a565b9695505050505050565b6001600160a01b03868116825285166020820152604081018490526060810183905260a0608082018190526000906113f390830184611c2a565b634e487b7160e01b600052601160045260246000fd5b6000816000190483118215151615611d4e57611d4e611d1e565b500290565b8181038181111561034c5761034c611d1e565b60008251611d7881846020870161184d565b9190910192915050565b600082611d9f57634e487b7160e01b600052601260045260246000fd5b500490565b7f416363657373436f6e74726f6c3a206163636f756e7420000000000000000000815260008351611ddc81601785016020880161184d565b7001034b99036b4b9b9b4b733903937b6329607d1b6017918401918201528351611e0d81602884016020880161184d565b01602801949350505050565b60208152600061131c6020830184611871565b600060208284031215611e3e57600080fd5b8151801515811461131c57600080fd5b8082018082111561034c5761034c611d1e565b634e487b7160e01b600052603260045260246000fd5b600081611e8657611e86611d1e565b50600019019056fedf8b4c520ffe197c5343c6f5aec59570151ef9a492f2c624fd45ddde6135ec42a2646970667358221220a0d98e4109381778729ce792f5a53af42d88646a4784654649af768be38b2acd64736f6c63430008100033",
    "sourcePath": "c:/Users/kolam/Desktop/market/contracts/Market.sol",
    "compiler": {
        "name": "solc",
        "version": "0.8.16+commit.07a7930e"
    },
    "functionHashes": {
        "ADMIN()": "2a0acc6a",
        "DEFAULT_ADMIN_ROLE()": "a217fddf",
        "buyFromOrder(bytes32,uint256)": "f14fa00d",
        "cancelOrder(bytes32)": "7489ec23",
        "changeFeePercent(uint256)": "34eddf3e",
        "changePaymentToken(address)": "4558d717",
        "createOrder(string,uint256,address,uint256,uint256,bytes)": "32a73a1b",
        "getRoleAdmin(bytes32)": "248a9ca3",
        "grantRole(bytes32,address)": "2f2ff15d",
        "hasRole(bytes32,address)": "91d14854",
        "onERC1155BatchReceived(address,address,uint256[],uint256[],bytes)": "bc197c81",
        "onERC1155Received(address,address,uint256,uint256,bytes)": "f23a6e61",
        "onERC721Received(address,address,uint256,bytes)": "150b7a02",
        "orderByHash(bytes32)": "ec196001",
        "paused()": "5c975abb",
        "paymentToken()": "3013ce29",
        "renounceRole(bytes32,address)": "36568abe",
        "revokeRole(bytes32,address)": "d547741f",
        "supportsInterface(bytes4)": "01ffc9a7"
    },
    "gasEstimates": {
        "creation": {
            "codeDepositCost": "1581600",
            "executionCost": "infinite",
            "totalCost": "infinite"
        },
        "external": {
            "ADMIN()": "infinite",
            "DEFAULT_ADMIN_ROLE()": "306",
            "buyFromOrder(bytes32,uint256)": "infinite",
            "cancelOrder(bytes32)": "infinite",
            "changeFeePercent(uint256)": "24760",
            "changePaymentToken(address)": "infinite",
            "createOrder(string,uint256,address,uint256,uint256,bytes)": "infinite",
            "getRoleAdmin(bytes32)": "2515",
            "grantRole(bytes32,address)": "infinite",
            "hasRole(bytes32,address)": "2740",
            "onERC1155BatchReceived(address,address,uint256[],uint256[],bytes)": "infinite",
            "onERC1155Received(address,address,uint256,uint256,bytes)": "infinite",
            "onERC721Received(address,address,uint256,bytes)": "infinite",
            "orderByHash(bytes32)": "infinite",
            "paused()": "2338",
            "paymentToken()": "2382",
            "renounceRole(bytes32,address)": "29106",
            "revokeRole(bytes32,address)": "infinite",
            "supportsInterface(bytes4)": "450"
        },
        "internal": {
            "calculateFeeFromOrder(uint256)": "2382",
            "matchType(string memory)": "infinite",
            "pause()": "infinite",
            "unpause()": "infinite"
        }
    }
}