{
    "contractName": "Market",
    "abi": [
        {
            "inputs": [
                {
                    "internalType": "address",
                    "name": "_receiverSender",
                    "type": "address"
                },
                {
                    "internalType": "address",
                    "name": "_paymentT",
                    "type": "address"
                },
                {
                    "internalType": "uint256",
                    "name": "_feePercent",
                    "type": "uint256"
                }
            ],
            "stateMutability": "nonpayable",
            "type": "constructor"
        },
        {
            "anonymous": false,
            "inputs": [
                {
                    "indexed": false,
                    "internalType": "address",
                    "name": "buyer",
                    "type": "address"
                },
                {
                    "indexed": false,
                    "internalType": "enum Market.Type",
                    "name": "typeToken",
                    "type": "uint8"
                },
                {
                    "indexed": false,
                    "internalType": "uint256",
                    "name": "amount",
                    "type": "uint256"
                },
                {
                    "indexed": false,
                    "internalType": "address",
                    "name": "token",
                    "type": "address"
                },
                {
                    "indexed": false,
                    "internalType": "bytes32",
                    "name": "hashOrder",
                    "type": "bytes32"
                }
            ],
            "name": "BoughtOrder",
            "type": "event"
        },
        {
            "anonymous": false,
            "inputs": [
                {
                    "indexed": false,
                    "internalType": "bytes32",
                    "name": "hashOrder",
                    "type": "bytes32"
                },
                {
                    "indexed": false,
                    "internalType": "uint256",
                    "name": "timestamp",
                    "type": "uint256"
                }
            ],
            "name": "CancelOrderByAdmin",
            "type": "event"
        },
        {
            "anonymous": false,
            "inputs": [
                {
                    "indexed": false,
                    "internalType": "address",
                    "name": "seller",
                    "type": "address"
                },
                {
                    "indexed": false,
                    "internalType": "enum Market.Type",
                    "name": "typeToken",
                    "type": "uint8"
                },
                {
                    "indexed": false,
                    "internalType": "uint256",
                    "name": "amount",
                    "type": "uint256"
                },
                {
                    "indexed": false,
                    "internalType": "address",
                    "name": "token",
                    "type": "address"
                },
                {
                    "indexed": false,
                    "internalType": "bytes32",
                    "name": "hashOrder",
                    "type": "bytes32"
                }
            ],
            "name": "CreatedOrder",
            "type": "event"
        },
        {
            "anonymous": false,
            "inputs": [
                {
                    "indexed": false,
                    "internalType": "address",
                    "name": "account",
                    "type": "address"
                }
            ],
            "name": "Paused",
            "type": "event"
        },
        {
            "anonymous": false,
            "inputs": [
                {
                    "indexed": true,
                    "internalType": "bytes32",
                    "name": "role",
                    "type": "bytes32"
                },
                {
                    "indexed": true,
                    "internalType": "bytes32",
                    "name": "previousAdminRole",
                    "type": "bytes32"
                },
                {
                    "indexed": true,
                    "internalType": "bytes32",
                    "name": "newAdminRole",
                    "type": "bytes32"
                }
            ],
            "name": "RoleAdminChanged",
            "type": "event"
        },
        {
            "anonymous": false,
            "inputs": [
                {
                    "indexed": true,
                    "internalType": "bytes32",
                    "name": "role",
                    "type": "bytes32"
                },
                {
                    "indexed": true,
                    "internalType": "address",
                    "name": "account",
                    "type": "address"
                },
                {
                    "indexed": true,
                    "internalType": "address",
                    "name": "sender",
                    "type": "address"
                }
            ],
            "name": "RoleGranted",
            "type": "event"
        },
        {
            "anonymous": false,
            "inputs": [
                {
                    "indexed": true,
                    "internalType": "bytes32",
                    "name": "role",
                    "type": "bytes32"
                },
                {
                    "indexed": true,
                    "internalType": "address",
                    "name": "account",
                    "type": "address"
                },
                {
                    "indexed": true,
                    "internalType": "address",
                    "name": "sender",
                    "type": "address"
                }
            ],
            "name": "RoleRevoked",
            "type": "event"
        },
        {
            "anonymous": false,
            "inputs": [
                {
                    "indexed": false,
                    "internalType": "address",
                    "name": "account",
                    "type": "address"
                }
            ],
            "name": "Unpaused",
            "type": "event"
        },
        {
            "inputs": [],
            "name": "ADMIN",
            "outputs": [
                {
                    "internalType": "bytes32",
                    "name": "",
                    "type": "bytes32"
                }
            ],
            "stateMutability": "view",
            "type": "function"
        },
        {
            "inputs": [],
            "name": "DEFAULT_ADMIN_ROLE",
            "outputs": [
                {
                    "internalType": "bytes32",
                    "name": "",
                    "type": "bytes32"
                }
            ],
            "stateMutability": "view",
            "type": "function"
        },
        {
            "inputs": [
                {
                    "internalType": "bytes32",
                    "name": "hashOrder",
                    "type": "bytes32"
                },
                {
                    "internalType": "uint256",
                    "name": "amount",
                    "type": "uint256"
                }
            ],
            "name": "buyFromOrder",
            "outputs": [],
            "stateMutability": "nonpayable",
            "type": "function"
        },
        {
            "inputs": [
                {
                    "internalType": "bytes32",
                    "name": "_hashOrder",
                    "type": "bytes32"
                }
            ],
            "name": "cancelOrder",
            "outputs": [
                {
                    "internalType": "bytes32",
                    "name": "",
                    "type": "bytes32"
                }
            ],
            "stateMutability": "nonpayable",
            "type": "function"
        },
        {
            "inputs": [
                {
                    "internalType": "address",
                    "name": "token",
                    "type": "address"
                }
            ],
            "name": "changerPaymentToken",
            "outputs": [
                {
                    "internalType": "address",
                    "name": "",
                    "type": "address"
                }
            ],
            "stateMutability": "nonpayable",
            "type": "function"
        },
        {
            "inputs": [
                {
                    "internalType": "string",
                    "name": "_type",
                    "type": "string"
                },
                {
                    "internalType": "uint256",
                    "name": "_price",
                    "type": "uint256"
                },
                {
                    "internalType": "address",
                    "name": "_token",
                    "type": "address"
                },
                {
                    "internalType": "uint256",
                    "name": "_id",
                    "type": "uint256"
                },
                {
                    "internalType": "uint256",
                    "name": "_amount",
                    "type": "uint256"
                },
                {
                    "internalType": "bytes",
                    "name": "_data",
                    "type": "bytes"
                }
            ],
            "name": "createOrder",
            "outputs": [],
            "stateMutability": "nonpayable",
            "type": "function"
        },
        {
            "inputs": [
                {
                    "internalType": "bytes32",
                    "name": "role",
                    "type": "bytes32"
                }
            ],
            "name": "getRoleAdmin",
            "outputs": [
                {
                    "internalType": "bytes32",
                    "name": "",
                    "type": "bytes32"
                }
            ],
            "stateMutability": "view",
            "type": "function"
        },
        {
            "inputs": [
                {
                    "internalType": "bytes32",
                    "name": "role",
                    "type": "bytes32"
                },
                {
                    "internalType": "address",
                    "name": "account",
                    "type": "address"
                }
            ],
            "name": "grantRole",
            "outputs": [],
            "stateMutability": "nonpayable",
            "type": "function"
        },
        {
            "inputs": [
                {
                    "internalType": "bytes32",
                    "name": "role",
                    "type": "bytes32"
                },
                {
                    "internalType": "address",
                    "name": "account",
                    "type": "address"
                }
            ],
            "name": "hasRole",
            "outputs": [
                {
                    "internalType": "bool",
                    "name": "",
                    "type": "bool"
                }
            ],
            "stateMutability": "view",
            "type": "function"
        },
        {
            "inputs": [
                {
                    "internalType": "bytes32",
                    "name": "",
                    "type": "bytes32"
                }
            ],
            "name": "orderByHash",
            "outputs": [
                {
                    "internalType": "address",
                    "name": "seller",
                    "type": "address"
                },
                {
                    "internalType": "address",
                    "name": "target",
                    "type": "address"
                },
                {
                    "internalType": "uint256",
                    "name": "amount",
                    "type": "uint256"
                },
                {
                    "internalType": "uint256",
                    "name": "id",
                    "type": "uint256"
                },
                {
                    "internalType": "uint256",
                    "name": "price",
                    "type": "uint256"
                },
                {
                    "internalType": "bytes",
                    "name": "data",
                    "type": "bytes"
                },
                {
                    "internalType": "enum Market.Type",
                    "name": "typeToken",
                    "type": "uint8"
                },
                {
                    "internalType": "enum Market.Status",
                    "name": "status",
                    "type": "uint8"
                }
            ],
            "stateMutability": "view",
            "type": "function"
        },
        {
            "inputs": [],
            "name": "paused",
            "outputs": [
                {
                    "internalType": "bool",
                    "name": "",
                    "type": "bool"
                }
            ],
            "stateMutability": "view",
            "type": "function"
        },
        {
            "inputs": [],
            "name": "paymentToken",
            "outputs": [
                {
                    "internalType": "address",
                    "name": "",
                    "type": "address"
                }
            ],
            "stateMutability": "view",
            "type": "function"
        },
        {
            "inputs": [
                {
                    "internalType": "bytes32",
                    "name": "role",
                    "type": "bytes32"
                },
                {
                    "internalType": "address",
                    "name": "account",
                    "type": "address"
                }
            ],
            "name": "renounceRole",
            "outputs": [],
            "stateMutability": "nonpayable",
            "type": "function"
        },
        {
            "inputs": [
                {
                    "internalType": "bytes32",
                    "name": "role",
                    "type": "bytes32"
                },
                {
                    "internalType": "address",
                    "name": "account",
                    "type": "address"
                }
            ],
            "name": "revokeRole",
            "outputs": [],
            "stateMutability": "nonpayable",
            "type": "function"
        },
        {
            "inputs": [
                {
                    "internalType": "bytes4",
                    "name": "interfaceId",
                    "type": "bytes4"
                }
            ],
            "name": "supportsInterface",
            "outputs": [
                {
                    "internalType": "bool",
                    "name": "",
                    "type": "bool"
                }
            ],
            "stateMutability": "view",
            "type": "function"
        }
    ],
    "bytecode": "60806040523480156200001157600080fd5b50604051620019c6380380620019c6833981016040819052620000349162000173565b6001805460ff19169055600380546001600160a01b038086166001600160a01b031992831617909255600583905560048054928516929091169190911790556200009f7fdf8b4c520ffe197c5343c6f5aec59570151ef9a492f2c624fd45ddde6135ec4233620000b5565b620000ac600033620000b5565b505050620001b4565b6000828152602081815260408083206001600160a01b038516845290915290205460ff1662000152576000828152602081815260408083206001600160a01b03851684529091529020805460ff19166001179055620001113390565b6001600160a01b0316816001600160a01b0316837f2f8788117e7eff1d82e926ec794901d17c78024a50270940304540a733656f0d60405160405180910390a45b5050565b80516001600160a01b03811681146200016e57600080fd5b919050565b6000806000606084860312156200018957600080fd5b620001948462000156565b9250620001a46020850162000156565b9150604084015190509250925092565b61180280620001c46000396000f3fe608060405234801561001057600080fd5b50600436106100f55760003560e01c80635c975abb11610097578063d547741f11610066578063d547741f14610219578063ec1960011461022c578063f14fa00d14610253578063f7ddd3821461026657600080fd5b80635c975abb146101e05780637489ec23146101eb57806391d14854146101fe578063a217fddf1461021157600080fd5b80632f2ff15d116100d35780632f2ff15d1461017a5780633013ce291461018f57806332a73a1b146101ba57806336568abe146101cd57600080fd5b806301ffc9a7146100fa578063248a9ca3146101225780632a0acc6a14610153575b600080fd5b61010d610108366004611045565b610279565b60405190151581526020015b60405180910390f35b61014561013036600461106f565b60009081526020819052604090206001015490565b604051908152602001610119565b6101457fdf8b4c520ffe197c5343c6f5aec59570151ef9a492f2c624fd45ddde6135ec4281565b61018d61018836600461109f565b6102b0565b005b6004546101a2906001600160a01b031681565b6040516001600160a01b039091168152602001610119565b61018d6101c8366004611114565b6102da565b61018d6101db36600461109f565b610550565b60015460ff1661010d565b6101456101f936600461106f565b6105ce565b61010d61020c36600461109f565b61074b565b610145600081565b61018d61022736600461109f565b610774565b61023f61023a36600461106f565b610799565b604051610119989796959493929190611238565b61018d6102613660046112a8565b610879565b6101a26102743660046112ca565b610b65565b60006001600160e01b03198216637965db0b60e01b14806102aa57506301ffc9a760e01b6001600160e01b03198316145b92915050565b6000828152602081905260409020600101546102cb81610bbd565b6102d58383610bca565b505050565b6102e2610c4e565b6000888888886040516020016102fb949392919061130e565b60408051808303601f1901815282825280516020918201206000818152600283528390208054336001600160a01b03199182161782556001820180549091166001600160a01b038d16179055601f8d018390048302850183019093528b845293509091610382918c908c9081908401838280828437600092019190915250610c9692505050565b60068201805460ff19166001838181111561039f5761039f611204565b0217905550600281018590556003810186905560048101889055600581016103c88486836113e1565b5060068101805461010061ff001982161790915560009060ff1660018111156103f3576103f3611204565b0361046357604051635c46a7ef60e11b81526001600160a01b0388169063b88d4fde9061042c90339030908b908a908a906004016114a2565b600060405180830381600087803b15801561044657600080fd5b505af115801561045a573d6000803e3d6000fd5b505050506104fd565b6001600682015460ff16600181111561047e5761047e611204565b036104b957604051637921219560e11b81526001600160a01b0388169063f242432a9061042c90339030908b908b908b908b906004016114e1565b60405162461bcd60e51b815260206004820152601460248201527326bab9ba103132903330b4b61032b0b93634b2b960611b60448201526064015b60405180910390fd5b60068101546040517f4755e5b252ad12dd8e63c34ea7e2fe8b3f08652a116f5ad1e47ce9cfad37b0e99161053c91339160ff169089908c908890611528565b60405180910390a150505050505050505050565b6001600160a01b03811633146105c05760405162461bcd60e51b815260206004820152602f60248201527f416363657373436f6e74726f6c3a2063616e206f6e6c792072656e6f756e636560448201526e103937b632b9903337b91039b2b63360891b60648201526084016104f4565b6105ca8282610da5565b5050565b60006105fa7fdf8b4c520ffe197c5343c6f5aec59570151ef9a492f2c624fd45ddde6135ec423361074b565b61060357600080fd5b600082815260026020526040812090600682015460ff16600181111561062b5761062b611204565b036106a55760018101546003820154604051635c46a7ef60e11b81526001600160a01b039092169163b88d4fde9161066e913391309160058801906004016115e5565b600060405180830381600087803b15801561068857600080fd5b505af115801561069c573d6000803e3d6000fd5b5050505061070a565b6001600682015460ff1660018111156106c0576106c0611204565b036104b957600181015460038201546002830154604051637921219560e11b81526001600160a01b039093169263f242432a9261066e923392309291906005890190600401611622565b604080518481524260208201527f87cc834229675baec0af60410f9eb4a93e4127452701a1800b6a3876ff8469e7910160405180910390a150600092915050565b6000918252602082815260408084206001600160a01b0393909316845291905290205460ff1690565b60008281526020819052604090206001015461078f81610bbd565b6102d58383610da5565b60026020819052600091825260409091208054600182015492820154600383015460048401546005850180546001600160a01b0395861697909516959394929391926107e490611359565b80601f016020809104026020016040519081016040528092919081815260200182805461081090611359565b801561085d5780601f106108325761010080835404028352916020019161085d565b820191906000526020600020905b81548152906001019060200180831161084057829003601f168201915b5050506006909301549192505060ff8082169161010090041688565b6000828152600260208190526040909120908101546108d25760405162461bcd60e51b81526020600482015260156024820152744f7264657220697320656d7074792f574841543f2160581b60448201526064016104f4565b81816002015410156109385760405162461bcd60e51b815260206004820152602960248201527f4e6f7420656e6f75676820746f6b656e20696e206f726465722c2072657772696044820152681d1948185b5bdd5b9d60ba1b60648201526084016104f4565b8181600201546109489190611672565b60028201556004810154600090610960908490611685565b9050600061096d82610e0a565b600480546040516323b872dd60e01b81523092810192909252336024830152604482018390529192506001600160a01b03909116906323b872dd906064016020604051808303816000875af11580156109ca573d6000803e3d6000fd5b505050506040513d601f19601f820116820180604052508101906109ee91906116a4565b506000600684015460ff166001811115610a0a57610a0a611204565b03610a845760018301546003840154604051635c46a7ef60e11b81526001600160a01b039092169163b88d4fde91610a4d913391309160058a01906004016115e5565b600060405180830381600087803b158015610a6757600080fd5b505af1158015610a7b573d6000803e3d6000fd5b50505050610ae4565b6001600684015460ff166001811115610a9f57610a9f611204565b036104b95760018301546003840154604051637921219560e11b81526001600160a01b039092169163f242432a91610a4d91339130918a9060058b0190600401611622565b60068301805461ff00191690556002830154600003610b0857610b06856105ce565b505b600683015460018401546040517f429f42aa589c07009f3e62be46e27ac4beced6f275bc881ac1c86f04778d22d792610b5692339260ff9092169189916001600160a01b0316908b90611528565b60405180910390a15050505050565b6000610b917fdf8b4c520ffe197c5343c6f5aec59570151ef9a492f2c624fd45ddde6135ec423361074b565b610b9a57600080fd5b50600480546001600160a01b039092166001600160a01b03199092168217905590565b610bc78133610e3e565b50565b610bd4828261074b565b6105ca576000828152602081815260408083206001600160a01b03851684529091529020805460ff19166001179055610c0a3390565b6001600160a01b0316816001600160a01b0316837f2f8788117e7eff1d82e926ec794901d17c78024a50270940304540a733656f0d60405160405180910390a45050565b60015460ff1615610c945760405162461bcd60e51b815260206004820152601060248201526f14185d5cd8589b194e881c185d5cd95960821b60448201526064016104f4565b565b6040516545524337323160d01b60208201526000906026016040516020818303038152906040528051906020012082604051602001610cd591906116c6565b6040516020818303038152906040528051906020012003610cf857506000919050565b604051664552433131353560c81b60208201526027016040516020818303038152906040528051906020012082604051602001610d3591906116c6565b6040516020818303038152906040528051906020012003610d5857506001919050565b60405162461bcd60e51b815260206004820152601860248201527f57726f6e67206e616d65206f6620746f6b656e2074797065000000000000000060448201526064016104f4565b919050565b610daf828261074b565b156105ca576000828152602081815260408083206001600160a01b0385168085529252808320805460ff1916905551339285917ff6391f5c32d9c69d2a47ea670b442974b53935d1edc7fd64eb21e047a839171b9190a45050565b6000806005546103e884610e1e91906116e2565b610e289190611685565b90506000610e368285611672565b949350505050565b610e48828261074b565b6105ca57610e60816001600160a01b03166014610ea2565b610e6b836020610ea2565b604051602001610e7c929190611704565b60408051601f198184030181529082905262461bcd60e51b82526104f491600401611779565b60606000610eb1836002611685565b610ebc90600261178c565b67ffffffffffffffff811115610ed457610ed4611343565b6040519080825280601f01601f191660200182016040528015610efe576020820181803683370190505b509050600360fc1b81600081518110610f1957610f1961179f565b60200101906001600160f81b031916908160001a905350600f60fb1b81600181518110610f4857610f4861179f565b60200101906001600160f81b031916908160001a9053506000610f6c846002611685565b610f7790600161178c565b90505b6001811115610fef576f181899199a1a9b1b9c1cb0b131b232b360811b85600f1660108110610fab57610fab61179f565b1a60f81b828281518110610fc157610fc161179f565b60200101906001600160f81b031916908160001a90535060049490941c93610fe8816117b5565b9050610f7a565b50831561103e5760405162461bcd60e51b815260206004820181905260248201527f537472696e67733a20686578206c656e67746820696e73756666696369656e7460448201526064016104f4565b9392505050565b60006020828403121561105757600080fd5b81356001600160e01b03198116811461103e57600080fd5b60006020828403121561108157600080fd5b5035919050565b80356001600160a01b0381168114610da057600080fd5b600080604083850312156110b257600080fd5b823591506110c260208401611088565b90509250929050565b60008083601f8401126110dd57600080fd5b50813567ffffffffffffffff8111156110f557600080fd5b60208301915083602082850101111561110d57600080fd5b9250929050565b60008060008060008060008060c0898b03121561113057600080fd5b883567ffffffffffffffff8082111561114857600080fd5b6111548c838d016110cb565b909a50985060208b0135975088915061116f60408c01611088565b965060608b0135955060808b0135945060a08b013591508082111561119357600080fd5b506111a08b828c016110cb565b999c989b5096995094979396929594505050565b60005b838110156111cf5781810151838201526020016111b7565b50506000910152565b600081518084526111f08160208601602086016111b4565b601f01601f19169290920160200192915050565b634e487b7160e01b600052602160045260246000fd5b60028110610bc757634e487b7160e01b600052602160045260246000fd5b6001600160a01b0389811682528816602082015260408101879052606081018690526080810185905261010060a0820181905260009061127a838201876111d8565b9150506112868461121a565b8360c08301526112958361121a565b8260e08301529998505050505050505050565b600080604083850312156112bb57600080fd5b50508035926020909101359150565b6000602082840312156112dc57600080fd5b61103e82611088565b81835281816020850137506000828201602090810191909152601f909101601f19169091010190565b6060815260006113226060830186886112e5565b6020830194909452506001600160a01b039190911660409091015292915050565b634e487b7160e01b600052604160045260246000fd5b600181811c9082168061136d57607f821691505b60208210810361138d57634e487b7160e01b600052602260045260246000fd5b50919050565b601f8211156102d557600081815260208120601f850160051c810160208610156113ba5750805b601f850160051c820191505b818110156113d9578281556001016113c6565b505050505050565b67ffffffffffffffff8311156113f9576113f9611343565b61140d836114078354611359565b83611393565b6000601f84116001811461144157600085156114295750838201355b600019600387901b1c1916600186901b17835561149b565b600083815260209020601f19861690835b828110156114725786850135825560209485019460019092019101611452565b508682101561148f5760001960f88860031b161c19848701351681555b505060018560011b0183555b5050505050565b6001600160a01b03868116825285166020820152604081018490526080606082018190526000906114d690830184866112e5565b979650505050505050565b6001600160a01b03878116825286166020820152604081018590526060810184905260a06080820181905260009061151c90830184866112e5565b98975050505050505050565b6001600160a01b03868116825260a08201906115438761121a565b8660208401528560408401528085166060840152508260808301529695505050505050565b6000815461157581611359565b80855260206001838116801561159257600181146115ac576115da565b60ff1985168884015283151560051b8801830195506115da565b866000528260002060005b858110156115d25781548a82018601529083019084016115b7565b890184019650505b505050505092915050565b6001600160a01b038581168252841660208201526040810183905260806060820181905260009061161890830184611568565b9695505050505050565b6001600160a01b03868116825285166020820152604081018490526060810183905260a0608082018190526000906114d690830184611568565b634e487b7160e01b600052601160045260246000fd5b818103818111156102aa576102aa61165c565b600081600019048311821515161561169f5761169f61165c565b500290565b6000602082840312156116b657600080fd5b8151801515811461103e57600080fd5b600082516116d88184602087016111b4565b9190910192915050565b6000826116ff57634e487b7160e01b600052601260045260246000fd5b500490565b7f416363657373436f6e74726f6c3a206163636f756e742000000000000000000081526000835161173c8160178501602088016111b4565b7001034b99036b4b9b9b4b733903937b6329607d1b601791840191820152835161176d8160288401602088016111b4565b01602801949350505050565b60208152600061103e60208301846111d8565b808201808211156102aa576102aa61165c565b634e487b7160e01b600052603260045260246000fd5b6000816117c4576117c461165c565b50600019019056fea2646970667358221220732c0222d2b9d69cfb44a9e26b85550dc8d376eb98fcff42627fdded6b64f4de64736f6c63430008100033",
    "sourcePath": "c:/Users/kolam/Desktop/market/contracts/Market.sol",
    "compiler": {
        "name": "solc",
        "version": "0.8.16+commit.07a7930e"
    },
    "functionHashes": {
        "ADMIN()": "2a0acc6a",
        "DEFAULT_ADMIN_ROLE()": "a217fddf",
        "buyFromOrder(bytes32,uint256)": "f14fa00d",
        "cancelOrder(bytes32)": "7489ec23",
        "changerPaymentToken(address)": "f7ddd382",
        "createOrder(string,uint256,address,uint256,uint256,bytes)": "32a73a1b",
        "getRoleAdmin(bytes32)": "248a9ca3",
        "grantRole(bytes32,address)": "2f2ff15d",
        "hasRole(bytes32,address)": "91d14854",
        "orderByHash(bytes32)": "ec196001",
        "paused()": "5c975abb",
        "paymentToken()": "3013ce29",
        "renounceRole(bytes32,address)": "36568abe",
        "revokeRole(bytes32,address)": "d547741f",
        "supportsInterface(bytes4)": "01ffc9a7"
    },
    "gasEstimates": {
        "creation": {
            "codeDepositCost": "1229200",
            "executionCost": "infinite",
            "totalCost": "infinite"
        },
        "external": {
            "ADMIN()": "263",
            "DEFAULT_ADMIN_ROLE()": "284",
            "buyFromOrder(bytes32,uint256)": "infinite",
            "cancelOrder(bytes32)": "infinite",
            "changerPaymentToken(address)": "27056",
            "createOrder(string,uint256,address,uint256,uint256,bytes)": "infinite",
            "getRoleAdmin(bytes32)": "2493",
            "grantRole(bytes32,address)": "infinite",
            "hasRole(bytes32,address)": "2718",
            "orderByHash(bytes32)": "infinite",
            "paused()": "2316",
            "paymentToken()": "2382",
            "renounceRole(bytes32,address)": "29084",
            "revokeRole(bytes32,address)": "infinite",
            "supportsInterface(bytes4)": "450"
        },
        "internal": {
            "calculateFeeFromOrder(uint256)": "2382",
            "matchType(string memory)": "infinite",
            "pause()": "infinite",
            "unpause()": "infinite"
        }
    }
}