{
    "contractName": "NFT",
    "abi": [
        {
            "inputs": [
                {
                    "internalType": "string",
                    "name": "name_",
                    "type": "string"
                },
                {
                    "internalType": "string",
                    "name": "symbol_",
                    "type": "string"
                },
                {
                    "internalType": "address",
                    "name": "newOwner",
                    "type": "address"
                },
                {
                    "internalType": "uint256",
                    "name": "tokenID",
                    "type": "uint256"
                }
            ],
            "stateMutability": "nonpayable",
            "type": "constructor"
        },
        {
            "anonymous": false,
            "inputs": [
                {
                    "indexed": true,
                    "internalType": "address",
                    "name": "owner",
                    "type": "address"
                },
                {
                    "indexed": true,
                    "internalType": "address",
                    "name": "approved",
                    "type": "address"
                },
                {
                    "indexed": true,
                    "internalType": "uint256",
                    "name": "tokenId",
                    "type": "uint256"
                }
            ],
            "name": "Approval",
            "type": "event"
        },
        {
            "anonymous": false,
            "inputs": [
                {
                    "indexed": true,
                    "internalType": "address",
                    "name": "owner",
                    "type": "address"
                },
                {
                    "indexed": true,
                    "internalType": "address",
                    "name": "operator",
                    "type": "address"
                },
                {
                    "indexed": false,
                    "internalType": "bool",
                    "name": "approved",
                    "type": "bool"
                }
            ],
            "name": "ApprovalForAll",
            "type": "event"
        },
        {
            "anonymous": false,
            "inputs": [
                {
                    "indexed": true,
                    "internalType": "address",
                    "name": "previousOwner",
                    "type": "address"
                },
                {
                    "indexed": true,
                    "internalType": "address",
                    "name": "newOwner",
                    "type": "address"
                }
            ],
            "name": "OwnershipTransferred",
            "type": "event"
        },
        {
            "anonymous": false,
            "inputs": [
                {
                    "indexed": true,
                    "internalType": "address",
                    "name": "from",
                    "type": "address"
                },
                {
                    "indexed": true,
                    "internalType": "address",
                    "name": "to",
                    "type": "address"
                },
                {
                    "indexed": true,
                    "internalType": "uint256",
                    "name": "tokenId",
                    "type": "uint256"
                }
            ],
            "name": "Transfer",
            "type": "event"
        },
        {
            "inputs": [
                {
                    "internalType": "address",
                    "name": "to",
                    "type": "address"
                },
                {
                    "internalType": "uint256",
                    "name": "tokenId",
                    "type": "uint256"
                }
            ],
            "name": "approve",
            "outputs": [],
            "stateMutability": "nonpayable",
            "type": "function"
        },
        {
            "inputs": [
                {
                    "internalType": "address",
                    "name": "owner",
                    "type": "address"
                }
            ],
            "name": "balanceOf",
            "outputs": [
                {
                    "internalType": "uint256",
                    "name": "",
                    "type": "uint256"
                }
            ],
            "stateMutability": "view",
            "type": "function"
        },
        {
            "inputs": [
                {
                    "internalType": "uint256",
                    "name": "tokenId",
                    "type": "uint256"
                }
            ],
            "name": "getApproved",
            "outputs": [
                {
                    "internalType": "address",
                    "name": "",
                    "type": "address"
                }
            ],
            "stateMutability": "view",
            "type": "function"
        },
        {
            "inputs": [
                {
                    "internalType": "address",
                    "name": "owner",
                    "type": "address"
                },
                {
                    "internalType": "address",
                    "name": "operator",
                    "type": "address"
                }
            ],
            "name": "isApprovedForAll",
            "outputs": [
                {
                    "internalType": "bool",
                    "name": "",
                    "type": "bool"
                }
            ],
            "stateMutability": "view",
            "type": "function"
        },
        {
            "inputs": [
                {
                    "internalType": "address",
                    "name": "to",
                    "type": "address"
                },
                {
                    "internalType": "uint256",
                    "name": "tokenId",
                    "type": "uint256"
                }
            ],
            "name": "mint",
            "outputs": [
                {
                    "internalType": "bool",
                    "name": "",
                    "type": "bool"
                }
            ],
            "stateMutability": "nonpayable",
            "type": "function"
        },
        {
            "inputs": [],
            "name": "name",
            "outputs": [
                {
                    "internalType": "string",
                    "name": "",
                    "type": "string"
                }
            ],
            "stateMutability": "view",
            "type": "function"
        },
        {
            "inputs": [],
            "name": "owner",
            "outputs": [
                {
                    "internalType": "address",
                    "name": "",
                    "type": "address"
                }
            ],
            "stateMutability": "view",
            "type": "function"
        },
        {
            "inputs": [
                {
                    "internalType": "uint256",
                    "name": "tokenId",
                    "type": "uint256"
                }
            ],
            "name": "ownerOf",
            "outputs": [
                {
                    "internalType": "address",
                    "name": "",
                    "type": "address"
                }
            ],
            "stateMutability": "view",
            "type": "function"
        },
        {
            "inputs": [],
            "name": "renounceOwnership",
            "outputs": [],
            "stateMutability": "nonpayable",
            "type": "function"
        },
        {
            "inputs": [
                {
                    "internalType": "address",
                    "name": "from",
                    "type": "address"
                },
                {
                    "internalType": "address",
                    "name": "to",
                    "type": "address"
                },
                {
                    "internalType": "uint256",
                    "name": "tokenId",
                    "type": "uint256"
                }
            ],
            "name": "safeTransferFrom",
            "outputs": [],
            "stateMutability": "nonpayable",
            "type": "function"
        },
        {
            "inputs": [
                {
                    "internalType": "address",
                    "name": "from",
                    "type": "address"
                },
                {
                    "internalType": "address",
                    "name": "to",
                    "type": "address"
                },
                {
                    "internalType": "uint256",
                    "name": "tokenId",
                    "type": "uint256"
                },
                {
                    "internalType": "bytes",
                    "name": "data",
                    "type": "bytes"
                }
            ],
            "name": "safeTransferFrom",
            "outputs": [],
            "stateMutability": "nonpayable",
            "type": "function"
        },
        {
            "inputs": [
                {
                    "internalType": "address",
                    "name": "operator",
                    "type": "address"
                },
                {
                    "internalType": "bool",
                    "name": "approved",
                    "type": "bool"
                }
            ],
            "name": "setApprovalForAll",
            "outputs": [],
            "stateMutability": "nonpayable",
            "type": "function"
        },
        {
            "inputs": [
                {
                    "internalType": "bytes4",
                    "name": "interfaceId",
                    "type": "bytes4"
                }
            ],
            "name": "supportsInterface",
            "outputs": [
                {
                    "internalType": "bool",
                    "name": "",
                    "type": "bool"
                }
            ],
            "stateMutability": "view",
            "type": "function"
        },
        {
            "inputs": [],
            "name": "symbol",
            "outputs": [
                {
                    "internalType": "string",
                    "name": "",
                    "type": "string"
                }
            ],
            "stateMutability": "view",
            "type": "function"
        },
        {
            "inputs": [
                {
                    "internalType": "uint256",
                    "name": "tokenId",
                    "type": "uint256"
                }
            ],
            "name": "tokenURI",
            "outputs": [
                {
                    "internalType": "string",
                    "name": "",
                    "type": "string"
                }
            ],
            "stateMutability": "view",
            "type": "function"
        },
        {
            "inputs": [
                {
                    "internalType": "address",
                    "name": "from",
                    "type": "address"
                },
                {
                    "internalType": "address",
                    "name": "to",
                    "type": "address"
                },
                {
                    "internalType": "uint256",
                    "name": "tokenId",
                    "type": "uint256"
                }
            ],
            "name": "transferFrom",
            "outputs": [],
            "stateMutability": "nonpayable",
            "type": "function"
        },
        {
            "inputs": [
                {
                    "internalType": "address",
                    "name": "newOwner",
                    "type": "address"
                }
            ],
            "name": "transferOwnership",
            "outputs": [],
            "stateMutability": "nonpayable",
            "type": "function"
        }
    ],
    "bytecode": "60806040523480156200001157600080fd5b5060405162001a4038038062001a408339810160408190526200003491620003f3565b8383600062000044838262000514565b50600162000053828262000514565b505050620000706200006a6200009260201b60201c565b62000096565b6200007c8282620000e8565b50620000888262000100565b5050505062000602565b3390565b600680546001600160a01b038381166001600160a01b0319831681179093556040519116919082907f8be0079c531659141344cd1fd0a4f28419497f9722a3daafe3b4186f6b6457e090600090a35050565b6000620000f6838362000183565b5060015b92915050565b6200010a620002cb565b6001600160a01b038116620001755760405162461bcd60e51b815260206004820152602660248201527f4f776e61626c653a206e6577206f776e657220697320746865207a65726f206160448201526564647265737360d01b60648201526084015b60405180910390fd5b620001808162000096565b50565b6001600160a01b038216620001db5760405162461bcd60e51b815260206004820181905260248201527f4552433732313a206d696e7420746f20746865207a65726f206164647265737360448201526064016200016c565b6000818152600260205260409020546001600160a01b031615620002425760405162461bcd60e51b815260206004820152601c60248201527f4552433732313a20746f6b656e20616c7265616479206d696e7465640000000060448201526064016200016c565b6001600160a01b03821660009081526003602052604081208054600192906200026d908490620005e0565b909155505060008181526002602052604080822080546001600160a01b0319166001600160a01b03861690811790915590518392907fddf252ad1be2c89b69c2b068fc378daa952ba7f163c4a11628f55a4df523b3ef908290a45050565b6006546001600160a01b03163314620003275760405162461bcd60e51b815260206004820181905260248201527f4f776e61626c653a2063616c6c6572206973206e6f7420746865206f776e657260448201526064016200016c565b565b505050565b634e487b7160e01b600052604160045260246000fd5b600082601f8301126200035657600080fd5b81516001600160401b03808211156200037357620003736200032e565b604051601f8301601f19908116603f011681019082821181831017156200039e576200039e6200032e565b81604052838152602092508683858801011115620003bb57600080fd5b600091505b83821015620003df5785820183015181830184015290820190620003c0565b600093810190920192909252949350505050565b600080600080608085870312156200040a57600080fd5b84516001600160401b03808211156200042257600080fd5b620004308883890162000344565b955060208701519150808211156200044757600080fd5b50620004568782880162000344565b604087015190945090506001600160a01b03811681146200047657600080fd5b6060959095015193969295505050565b600181811c908216806200049b57607f821691505b602082108103620004bc57634e487b7160e01b600052602260045260246000fd5b50919050565b601f8211156200032957600081815260208120601f850160051c81016020861015620004eb5750805b601f850160051c820191505b818110156200050c57828155600101620004f7565b505050505050565b81516001600160401b038111156200053057620005306200032e565b620005488162000541845462000486565b84620004c2565b602080601f831160018114620005805760008415620005675750858301515b600019600386901b1c1916600185901b1785556200050c565b600085815260208120601f198616915b82811015620005b15788860151825594840194600190910190840162000590565b5085821015620005d05787850151600019600388901b60f8161c191681555b5050505050600190811b01905550565b80820180821115620000fa57634e487b7160e01b600052601160045260246000fd5b61142e80620006126000396000f3fe608060405234801561001057600080fd5b506004361061010b5760003560e01c806370a08231116100a2578063a22cb46511610071578063a22cb4651461021b578063b88d4fde1461022e578063c87b56dd14610241578063e985e9c514610254578063f2fde38b1461029057600080fd5b806370a08231146101d9578063715018a6146101fa5780638da5cb5b1461020257806395d89b411461021357600080fd5b806323b872dd116100de57806323b872dd1461018d57806340c10f19146101a057806342842e0e146101b35780636352211e146101c657600080fd5b806301ffc9a71461011057806306fdde0314610138578063081812fc1461014d578063095ea7b314610178575b600080fd5b61012361011e366004610f55565b6102a3565b60405190151581526020015b60405180910390f35b6101406102f5565b60405161012f9190610fc2565b61016061015b366004610fd5565b610387565b6040516001600160a01b03909116815260200161012f565b61018b61018636600461100a565b6103ae565b005b61018b61019b366004611034565b6104c8565b6101236101ae36600461100a565b6104f9565b61018b6101c1366004611034565b61050e565b6101606101d4366004610fd5565b610529565b6101ec6101e7366004611070565b610589565b60405190815260200161012f565b61018b61060f565b6006546001600160a01b0316610160565b610140610623565b61018b61022936600461108b565b610632565b61018b61023c3660046110dd565b610641565b61014061024f366004610fd5565b610679565b6101236102623660046111b9565b6001600160a01b03918216600090815260056020908152604080832093909416825291909152205460ff1690565b61018b61029e366004611070565b6106ed565b60006001600160e01b031982166380ac58cd60e01b14806102d457506001600160e01b03198216635b5e139f60e01b145b806102ef57506301ffc9a760e01b6001600160e01b03198316145b92915050565b606060008054610304906111ec565b80601f0160208091040260200160405190810160405280929190818152602001828054610330906111ec565b801561037d5780601f106103525761010080835404028352916020019161037d565b820191906000526020600020905b81548152906001019060200180831161036057829003601f168201915b5050505050905090565b600061039282610766565b506000908152600460205260409020546001600160a01b031690565b60006103b982610529565b9050806001600160a01b0316836001600160a01b03160361042b5760405162461bcd60e51b815260206004820152602160248201527f4552433732313a20617070726f76616c20746f2063757272656e74206f776e656044820152603960f91b60648201526084015b60405180910390fd5b336001600160a01b038216148061044757506104478133610262565b6104b95760405162461bcd60e51b815260206004820152603e60248201527f4552433732313a20617070726f76652063616c6c6572206973206e6f7420746f60448201527f6b656e206f776e6572206e6f7220617070726f76656420666f7220616c6c00006064820152608401610422565b6104c383836107c5565b505050565b6104d23382610833565b6104ee5760405162461bcd60e51b815260040161042290611226565b6104c38383836108b2565b60006105058383610a4e565b50600192915050565b6104c383838360405180602001604052806000815250610641565b6000818152600260205260408120546001600160a01b0316806102ef5760405162461bcd60e51b8152602060048201526018602482015277115490cdcc8c4e881a5b9d985b1a59081d1bdad95b88125160421b6044820152606401610422565b60006001600160a01b0382166105f35760405162461bcd60e51b815260206004820152602960248201527f4552433732313a2061646472657373207a65726f206973206e6f7420612076616044820152683634b21037bbb732b960b91b6064820152608401610422565b506001600160a01b031660009081526003602052604090205490565b610617610b90565b6106216000610bea565b565b606060018054610304906111ec565b61063d338383610c3c565b5050565b61064b3383610833565b6106675760405162461bcd60e51b815260040161042290611226565b61067384848484610d0a565b50505050565b606061068482610766565b600061069b60408051602081019091526000815290565b905060008151116106bb57604051806020016040528060008152506106e6565b806106c584610d3d565b6040516020016106d6929190611274565b6040516020818303038152906040525b9392505050565b6106f5610b90565b6001600160a01b03811661075a5760405162461bcd60e51b815260206004820152602660248201527f4f776e61626c653a206e6577206f776e657220697320746865207a65726f206160448201526564647265737360d01b6064820152608401610422565b61076381610bea565b50565b6000818152600260205260409020546001600160a01b03166107635760405162461bcd60e51b8152602060048201526018602482015277115490cdcc8c4e881a5b9d985b1a59081d1bdad95b88125160421b6044820152606401610422565b600081815260046020526040902080546001600160a01b0319166001600160a01b03841690811790915581906107fa82610529565b6001600160a01b03167f8c5be1e5ebec7d5bd14f71427d1e84f3dd0314c0f7b2291e5b200ac8c7c3b92560405160405180910390a45050565b60008061083f83610529565b9050806001600160a01b0316846001600160a01b0316148061088657506001600160a01b0380821660009081526005602090815260408083209388168352929052205460ff165b806108aa5750836001600160a01b031661089f84610387565b6001600160a01b0316145b949350505050565b826001600160a01b03166108c582610529565b6001600160a01b0316146109295760405162461bcd60e51b815260206004820152602560248201527f4552433732313a207472616e736665722066726f6d20696e636f72726563742060448201526437bbb732b960d91b6064820152608401610422565b6001600160a01b03821661098b5760405162461bcd60e51b8152602060048201526024808201527f4552433732313a207472616e7366657220746f20746865207a65726f206164646044820152637265737360e01b6064820152608401610422565b6109966000826107c5565b6001600160a01b03831660009081526003602052604081208054600192906109bf9084906112b9565b90915550506001600160a01b03821660009081526003602052604081208054600192906109ed9084906112cc565b909155505060008181526002602052604080822080546001600160a01b0319166001600160a01b0386811691821790925591518493918716917fddf252ad1be2c89b69c2b068fc378daa952ba7f163c4a11628f55a4df523b3ef91a4505050565b6001600160a01b038216610aa45760405162461bcd60e51b815260206004820181905260248201527f4552433732313a206d696e7420746f20746865207a65726f20616464726573736044820152606401610422565b6000818152600260205260409020546001600160a01b031615610b095760405162461bcd60e51b815260206004820152601c60248201527f4552433732313a20746f6b656e20616c7265616479206d696e746564000000006044820152606401610422565b6001600160a01b0382166000908152600360205260408120805460019290610b329084906112cc565b909155505060008181526002602052604080822080546001600160a01b0319166001600160a01b03861690811790915590518392907fddf252ad1be2c89b69c2b068fc378daa952ba7f163c4a11628f55a4df523b3ef908290a45050565b6006546001600160a01b031633146106215760405162461bcd60e51b815260206004820181905260248201527f4f776e61626c653a2063616c6c6572206973206e6f7420746865206f776e65726044820152606401610422565b600680546001600160a01b038381166001600160a01b0319831681179093556040519116919082907f8be0079c531659141344cd1fd0a4f28419497f9722a3daafe3b4186f6b6457e090600090a35050565b816001600160a01b0316836001600160a01b031603610c9d5760405162461bcd60e51b815260206004820152601960248201527f4552433732313a20617070726f766520746f2063616c6c6572000000000000006044820152606401610422565b6001600160a01b03838116600081815260056020908152604080832094871680845294825291829020805460ff191686151590811790915591519182527f17307eab39ab6107e8899845ad3d59bd9653f200f220920489ca2b5937696c31910160405180910390a3505050565b610d158484846108b2565b610d2184848484610e3e565b6106735760405162461bcd60e51b8152600401610422906112df565b606081600003610d645750506040805180820190915260018152600360fc1b602082015290565b8160005b8115610d8e5780610d7881611331565b9150610d879050600a83611360565b9150610d68565b60008167ffffffffffffffff811115610da957610da96110c7565b6040519080825280601f01601f191660200182016040528015610dd3576020820181803683370190505b5090505b84156108aa57610de86001836112b9565b9150610df5600a86611374565b610e009060306112cc565b60f81b818381518110610e1557610e15611388565b60200101906001600160f81b031916908160001a905350610e37600a86611360565b9450610dd7565b60006001600160a01b0384163b15610f3457604051630a85bd0160e11b81526001600160a01b0385169063150b7a0290610e8290339089908890889060040161139e565b6020604051808303816000875af1925050508015610ebd575060408051601f3d908101601f19168201909252610eba918101906113db565b60015b610f1a573d808015610eeb576040519150601f19603f3d011682016040523d82523d6000602084013e610ef0565b606091505b508051600003610f125760405162461bcd60e51b8152600401610422906112df565b805181602001fd5b6001600160e01b031916630a85bd0160e11b1490506108aa565b506001949350505050565b6001600160e01b03198116811461076357600080fd5b600060208284031215610f6757600080fd5b81356106e681610f3f565b60005b83811015610f8d578181015183820152602001610f75565b50506000910152565b60008151808452610fae816020860160208601610f72565b601f01601f19169290920160200192915050565b6020815260006106e66020830184610f96565b600060208284031215610fe757600080fd5b5035919050565b80356001600160a01b038116811461100557600080fd5b919050565b6000806040838503121561101d57600080fd5b61102683610fee565b946020939093013593505050565b60008060006060848603121561104957600080fd5b61105284610fee565b925061106060208501610fee565b9150604084013590509250925092565b60006020828403121561108257600080fd5b6106e682610fee565b6000806040838503121561109e57600080fd5b6110a783610fee565b9150602083013580151581146110bc57600080fd5b809150509250929050565b634e487b7160e01b600052604160045260246000fd5b600080600080608085870312156110f357600080fd5b6110fc85610fee565b935061110a60208601610fee565b925060408501359150606085013567ffffffffffffffff8082111561112e57600080fd5b818701915087601f83011261114257600080fd5b813581811115611154576111546110c7565b604051601f8201601f19908116603f0116810190838211818310171561117c5761117c6110c7565b816040528281528a602084870101111561119557600080fd5b82602086016020830137600060208483010152809550505050505092959194509250565b600080604083850312156111cc57600080fd5b6111d583610fee565b91506111e360208401610fee565b90509250929050565b600181811c9082168061120057607f821691505b60208210810361122057634e487b7160e01b600052602260045260246000fd5b50919050565b6020808252602e908201527f4552433732313a2063616c6c6572206973206e6f7420746f6b656e206f776e6560408201526d1c881b9bdc88185c1c1c9bdd995960921b606082015260800190565b60008351611286818460208801610f72565b83519083019061129a818360208801610f72565b01949350505050565b634e487b7160e01b600052601160045260246000fd5b818103818111156102ef576102ef6112a3565b808201808211156102ef576102ef6112a3565b60208082526032908201527f4552433732313a207472616e7366657220746f206e6f6e20455243373231526560408201527131b2b4bb32b91034b6b83632b6b2b73a32b960711b606082015260800190565b600060018201611343576113436112a3565b5060010190565b634e487b7160e01b600052601260045260246000fd5b60008261136f5761136f61134a565b500490565b6000826113835761138361134a565b500690565b634e487b7160e01b600052603260045260246000fd5b6001600160a01b03858116825284166020820152604081018390526080606082018190526000906113d190830184610f96565b9695505050505050565b6000602082840312156113ed57600080fd5b81516106e681610f3f56fea26469706673582212206a42b4d76d6d288b8cfa6b8afc19ab4911564aea240d15cee8d521580201090c64736f6c63430008100033",
    "sourcePath": "c:/Users/kolam/Desktop/market/contracts/NFT.sol",
    "compiler": {
        "name": "solc",
        "version": "0.8.16+commit.07a7930e"
    },
    "functionHashes": {
        "approve(address,uint256)": "095ea7b3",
        "balanceOf(address)": "70a08231",
        "getApproved(uint256)": "081812fc",
        "isApprovedForAll(address,address)": "e985e9c5",
        "mint(address,uint256)": "40c10f19",
        "name()": "06fdde03",
        "owner()": "8da5cb5b",
        "ownerOf(uint256)": "6352211e",
        "renounceOwnership()": "715018a6",
        "safeTransferFrom(address,address,uint256)": "42842e0e",
        "safeTransferFrom(address,address,uint256,bytes)": "b88d4fde",
        "setApprovalForAll(address,bool)": "a22cb465",
        "supportsInterface(bytes4)": "01ffc9a7",
        "symbol()": "95d89b41",
        "tokenURI(uint256)": "c87b56dd",
        "transferFrom(address,address,uint256)": "23b872dd",
        "transferOwnership(address)": "f2fde38b"
    },
    "gasEstimates": {
        "creation": {
            "codeDepositCost": "1033200",
            "executionCost": "infinite",
            "totalCost": "infinite"
        },
        "external": {
            "approve(address,uint256)": "infinite",
            "balanceOf(address)": "2612",
            "getApproved(uint256)": "4792",
            "isApprovedForAll(address,address)": "infinite",
            "mint(address,uint256)": "53335",
            "name()": "infinite",
            "owner()": "2398",
            "ownerOf(uint256)": "2627",
            "renounceOwnership()": "infinite",
            "safeTransferFrom(address,address,uint256)": "infinite",
            "safeTransferFrom(address,address,uint256,bytes)": "infinite",
            "setApprovalForAll(address,bool)": "26705",
            "supportsInterface(bytes4)": "534",
            "symbol()": "infinite",
            "tokenURI(uint256)": "infinite",
            "transferFrom(address,address,uint256)": "infinite",
            "transferOwnership(address)": "28446"
        }
    }
}